:1000000062C0000088C0000086C0000084C00000FC
:1000100082C0000080C000007EC000007CC00000E4
:100020007AC0000078C0000076C0000074C00000F4
:1000300072C0000070C000006EC000006CC0000004
:1000400079C4000068C000000C944C080C94980817
:1000500062C0000060C000005EC000005CC0000024
:100060005AC0000058C00000000000002400270013
:100070002A0000000000250028002B0000000000DE
:1000800023002600290004040404040404040202DA
:100090000202020203030303030301020408102007
:1000A0004080010204081020010204081020000012
:1000B0000007000201000003040600000000000029
:1000C0000000FB00710811241FBECFEFD8E0DEBF97
:1000D000CDBF11E0A0E0B1E0E6E0F7E102C005909D
:1000E0000D92A833B107D9F712E0A8E3B1E001C03F
:1000F0001D92A83AB107E1F710E0C6ECD0E004C0C9
:100100002297FE010E947D0BC23CD107C9F70E94D5
:10011000E0080C94810B74CFA0E0B0E0E2E9F0E0DD
:100120000C944E0B7C01EB018A01690109C0CE01E0
:100130002196F6010995F70181937F010150104046
:1001400001151105A1F7CDB7DEB7E8E00C946A0BF5
:10015000A0E0B0E0EEEAF0E00C944E0BEC017B0185
:100160008A01690109C0CE012196F70161917F01E1
:10017000F60109950150104001151105A1F7CDB701
:10018000DEB7E8E00C946A0BDC01ED91FC91019084
:10019000F081E02D099508959C01F999FECF32BDBB
:1001A00021BDF89A80B508959C01F999FECF1FBA38
:1001B00032BD21BD60BD0FB6F894FA9AF99A0FBE10
:1001C0000895F89481E00895FC0180818FBF08951F
:1001D00080910102880F880FE6B1E370E82BE0936D
:1001E0000102F0E0EF70F070E050FF4F8081089561
:1001F0008093410108958FE491E0ECD78FE591E081
:10020000E9D78FE691E062E070E041E00E94870A62
:1002100086EA91E064E070E041E00E94870A8DED9B
:1002200091E069E04AE00E94AB0988EE91E065E068
:1002300046E00C94AB0986EA91E00E94BB099091DC
:100240004201882369F09C3FC9F48AEF80934301FF
:1002500088EE91E063E046E950E021E00C949609D5
:100260009A3F60F09C3F18F09C3F41F404C08CEF33
:100270008093430108958BEF80934301089526E016
:100280008EC51F938BE092E0E8D5182F882359F094
:1002900080914001882339F08BE092E0EAD5BC01DF
:1002A0008BE092E071DF812F1F910895EF92FF9212
:1002B0000F931F9310914101123009F48AC013303B
:1002C00009F493C0113009F097C08AD32091F4014A
:1002D0003091F5014091F6015091F701261737074B
:1002E0004807590730F48FE491E078D71093000263
:1002F00043C0809100028F5F8093000271D39B0105
:10030000AC018091FC019091FD01A091FE01B091A2
:10031000FF01281B390B4A0B5B0B2093F80130932C
:10032000F9014093FA015093FB018FE491E0B90188
:1003300059D7FC01809100028430F0F020913F01F8
:1003400030E040E050E0BF01882777FD8095982F8E
:100350000E94220B209345013093460140934701B0
:10036000509348018DED91E063E04BE450E021E0D3
:10037000DDD788EE91E002C08DED91E063E04BE4C3
:1003800050E021E0D3D72CD36093FC017093FD01A2
:100390008093FE019093FF0123D37B018C01609138
:1003A0003F0170E080E090E020EA36E841E050E074
:1003B0000E94D00A9B01AC012E0D3F1D401F511F12
:1003C0002093F4013093F5014093F6015093F70127
:1003D00013C083E00DDFAB2C80914401882311F022
:1003E0008093430188EE91E004C081E001DF8DED50
:1003F00091E060E040E090D71F910F91FF90EF9067
:100400000895809141018150823008F0DEC0E8D229
:1004100062197309840995092091450130914601BB
:10042000409147015091480126173707480759075F
:1004300008F0CBC08BE092E068EF70E0A5DED0D290
:100440001B012C019A2D9F5FA92E80913F019817C7
:1004500039F4289AAA2460914D0188EE91E008C0F1
:100460008695981709F0B1C0289888EE91E060E071
:1004700040E052D7AAC08BE092E00BD5982F907F36
:100480009A3F09F479C09B3F20F4983F09F09DC042
:1004900007C09B3F09F483C09C3F09F096C059C038
:1004A0009FD29B01AC01261937094809590981F0EF
:1004B0008FE591E0B90196D6AA2797FDA095BA2FAE
:1004C0008093490190934A01A0934B01B0934C0152
:1004D00087D23B014C019B2D9F5FB92E809141013A
:1004E000823021F0833009F070C010C080913F014C
:1004F000981729F460914E018DED91E01BC086950F
:10050000981709F062C08DED91E0B1CF8BE092E0D9
:1005100068EF70E039DE80913F01B81679F4289ACF
:1005200060914E018DED91E041E0F6D660914D0174
:1005300088EE91E041E0F0D6BB2447C08695B8161E
:1005400009F043C028988DED91E060E040E0E4D6EA
:100550008CCF80914101833029F49093430181E055
:1005600080934D018CEF8093440181E080934E0194
:100570008DED91E061E025C080914101833029F447
:100580009093430182E080934D018AEF8093440170
:1005900082E080934E018DED91E063E012C0809186
:1005A0004101833029F482E080934D01909343010F
:1005B0008BEF8093440182E080934E018DED91E0BA
:1005C00062E048EC50E021E0B1D65BDE882309F020
:1005D00052CF06D26619770988099909615C77427A
:1005E0008940904060F0662477244301BB2481E079
:1005F000FFDD8DED91E060E040E08ED60EC061142D
:1006000071048104910449F080914101813029F401
:1006100082E0EEDD83E080934E018BE092E057D4E0
:10062000D7DD182F882309F467C08FE691E0A3D6A1
:10063000882319F46AE070E002C064EF71E0209151
:10064000F301210F2093F301809141018150823009
:1006500008F052C02C3F41F1243009F04DC01092F7
:10066000F30120914501309146014091470150919D
:100670004801203781E1380781E0480780E05807CA
:10068000D8F5CB01A0E0B0E0820F931FA41FB51FE7
:100690008093450190934601A0934701B093480190
:1006A0008DED91E061E024C01092F30120914501AD
:1006B0003091460140914701509148012932E3E2CF
:1006C0003E07E0E04E07E0E05E07B0F0CB01A0E0BF
:1006D000B0E0281B390B4A0B5B0B2093450130938C
:1006E000460140934701509348018DED91E062E04F
:1006F00049E150E021E01AD68091420190914301F6
:10070000891729F19B3F89F09C3F19F09A3FA9F482
:1007100007C08BE092E06CEF70E036DD81E00BC04B
:100720008BE092E06AEF70E004C08BE092E06BEF48
:1007300070E02ADD82E080934D0180914301809337
:10074000420160914D0188EE91E040E0E5D58FE6F1
:1007500091E030D686EA91E02DD686EA91E0D5D6B2
:10076000882309F068DD8FE691E0CFD6882309F071
:100770009DDD8DED91E0ACD588EE91E0A9C59C01A1
:10078000CB01B90124ED30E0E3CC299A5D9A8EEEDD
:1007900097EC909339018093380188E180933F0171
:1007A00080E29EE4A0E0B0E080933A0190933B01A8
:1007B000A0933C01B0933D018CEF80933E011092D9
:1007C000400188E391E060E070E049E050E0D7DF6D
:1007D00064E670E080E090E064D186EA91E095D62E
:1007E0008823B1F78FE691E090D6882389F729987E
:1007F0005D980895A1E0B0E0EFEFF3E054C7809179
:1008000064008460809364008091640080688093B9
:100810006400259A2D9A8FB78983D3DC882311F041
:1008200038984098CE010196CFDC409A8FB78983E3
:10083000C8DC882311F039984198CE010196C4DCB8
:10084000419A209A88E391E060E070E049E050E04E
:100850002CEC30E061DC80913801909139018E5EA2
:10086000974C51F486EA91E050D6882331F08FE618
:1008700091E04BD6882309F088DF80913E018B3FC1
:1008800009F48AEF8093430180913A0190913B01F2
:10089000A0913C01B0913D018093450190934601A8
:1008A000A0934701B0934801662477244301222492
:1008B00033242101AA24BB2481E080934E0198DCDB
:1008C0008BE092E042E15AE760E070E0D8DC10E0B3
:1008D0001B5F8AE0612F70E006D186E0612F70E037
:1008E00002D164E070E080E090E0DBD0103C80F367
:1008F00013EC15508AE0612F70E0F5D086E0612F8F
:1009000070E0F1D064E070E080E090E0CAD0163092
:1009100080F78AE060E070E0E6D086E060E070E0BA
:10092000E2D066E970E080E090E0BBD02D9821969F
:10093000E3E0D5C61F920F920FB60F9211242F93AA
:100940003F938F939F93AF93BF93809106029091B3
:100950000702A0910802B091090230910A020196A3
:10096000A11DB11D232F2D5F2D3720F02D5701968E
:10097000A11DB11D20930A028093060290930702E5
:10098000A0930802B09309028091020290910302A1
:10099000A0910402B09105020196A11DB11D8093A2
:1009A000020290930302A0930402B0930502BF9148
:1009B000AF919F918F913F912F910F900FBE0F900C
:1009C0001F9018958FB7F894209106023091070276
:1009D00040910802509109028FBFB901CA010895E0
:1009E0009FB7F894209102023091030240910402D3
:1009F0005091050286B5A89B06C08F3F21F02F5F5E
:100A00003F4F4F4F5F4F9FBF542F432F322F22270F
:100A1000280F311D411D511D82E0220F331F441F3D
:100A2000551F8A95D1F7B901CA010895789484B504
:100A3000826084BD84B5816084BD85B5826085BDDA
:100A400085B5816085BDEEE6F0E0808181608083C0
:100A5000E1E8F0E0108280818260808380818160A3
:100A60008083E0E8F0E0808181608083E1EBF0E06A
:100A7000808184608083E0EBF0E08081816080830E
:100A8000EAE7F0E0808184608083808182608083F7
:100A90008081816080838081806880831092C10022
:100AA0000895EF92FF920F931F93CF93DF937B01F3
:100AB0008C0196DFEB010EC072D592DF6C1B7D0BB3
:100AC000685E7340C8F30894E108F1080109110950
:100AD000C851DC4FE114F1040105110569F7CDB7E8
:100AE000DEB7E6E0F9C51F93CF93DF93182FEB0134
:100AF00061E057D0209709F44AC0CF3FD10509F4EF
:100B000049C0E12FF0E0E255FF4F84918330C1F0FE
:100B1000843028F4813051F08230B1F50CC0863039
:100B200019F1873049F1843079F514C084B58068B3
:100B300084BDC7BD32C084B5806284BDC8BD2DC030
:100B400080918000806880938000D0938900C0935A
:100B5000880023C080918000806280938000D093C1
:100B60008B00C0938A0019C08091B0008068809388
:100B7000B000C093B30011C08091B0008062809338
:100B8000B000C093B40009C0C038D1051CF4812F57
:100B900060E002C0812F61E072D0DF91CF911F91A0
:100BA0000895CF93DF93482F50E0CA0186569F4F98
:100BB000FC0134914A575F4FFA018491882379F1FF
:100BC000482F50E0440F551FCA0188599F4FFC0120
:100BD000A591B4914E585F4FFA01C591D491662307
:100BE00051F42FB7F8948C91932F909589238C937F
:100BF000888189230BC0623061F42FB7F8948C91FF
:100C0000932F909589238C938881832B88832FBF82
:100C100006C09FB7F8948C91832B8C939FBFDF9174
:100C2000CF910895833071F0843028F48130A1F0A1
:100C3000823021F514C08630B1F08730D1F0843095
:100C4000E9F404C0809180008F7703C08091800018
:100C50008F7D80938000089584B58F7702C084B51E
:100C60008F7D84BD08958091B0008F778093B00010
:100C700008958091B0008F7D8093B0000895FF9219
:100C80000F931F93F62E482F50E0CA0182559F4FB5
:100C9000FC012491CA0186569F4FFC0114914A57CA
:100CA0005F4FFA0104910023C1F0222311F0822F3B
:100CB000B9DFE02FF0E0EE0FFF1FEE58FF4FA591D8
:100CC000B4919FB7F894FF2021F48C911095812363
:100CD00002C08C91812B8C939FBF1F910F91FF902D
:100CE00008950F931F93482F50E0CA0182559F4FDC
:100CF000FC012491CA0186569F4FFC0104914A577A
:100D00005F4FFA011491112319F420E030E013C071
:100D1000222311F0822F86DFE12FF0E0EE0FFF1F7C
:100D2000E458FF4FA591B4918C91802320E030E0EE
:100D300011F021E030E0C9011F910F910895DC010D
:100D40005C968C915C97FD01E80FF11DE35AFF4F13
:100D500020815C968C915C9790E001968F739070E7
:100D60005C968C935C975696ED91FC9157972083F7
:100D70005096ED91FC9151978081806480835B96C1
:100D80009C915B975C968C915C97981739F452967E
:100D9000ED91FC91539780818F7D80830895A0E031
:100DA000B0E0E4EDF6E07BC4EC017A018B01D22ED9
:100DB000E889F98982E08083403021EE520720E003
:100DC000620720E07207A1F060E079E08DE390E037
:100DD000A801970137D4C901DA010197A109B10926
:100DE000B695A7959795879520E18030920798F062
:100DF000E889F989108260E874E88EE190E0A80142
:100E0000970120D4C901DA010197A109B109B6956A
:100E1000A79597958795EC85FD859083EE85FF8551
:100E20008083188EEC89FD89D082EA89FB898081D4
:100E300080618083EA89FB89808188608083EA8978
:100E4000FB89808180688083EA89FB8980818F7D2E
:100E50008083CDB7DEB7E7E03EC4FC01218D30E0F2
:100E6000828D205C3F4F281B31092F733070C901E0
:100E70000895FC01918D828D981719F42FEF3FEFA3
:100E800006C0828DE80FF11D858D282F30E0C90145
:100E90000895DC0159969C9159975A968C915A97CE
:100EA000981719F42FEF3FEF10C05A968C915A976C
:100EB000FD01E80FF11D958D5A968C915A978F5F21
:100EC0008F735A968C93292F30E0C9010895CF93E0
:100ED000DF93EC01888D882359F418C08C9185FF2D
:100EE00007C0E889F989808185FF02C0CE0127DF2C
:100EF000AA89BB898C9185FD05C0E889F989808123
:100F000086FD04C00FB607FEE9CFF2CFDF91CF9187
:100F100008950F931F93CF93DF93EC01062F9B8DC2
:100F20008C8D981789F5E889F989808185FF2CC017
:100F3000EE89FF896083E889F989808180648083F4
:100F40001CC00FB607FC07C0E889F989808185FFBE
:100F500002C0CE01F4DE8C8D181799F38B8DFE0143
:100F6000E80FF11DE35AFF4F00831B8FEA89FB89CD
:100F700080818062808381E0888F81E090E0DF91D2
:100F8000CF911F910F9108951B8D1F5F1F73E3CFAA
:100F90008FE898E0892B49F080E090E0892B29F0D8
:100FA000BED0882311F00E9400000895FC0184E364
:100FB00091E0918380831382128208950F931F938F
:100FC0008C01F4DF84E291E0F8019183808388EE64
:100FD00093E0A0E0B0E084839583A683B7831F915C
:100FE0000F9108954F925F926F927F928F929F928E
:100FF000AF92BF92CF92DF92EF92FF920F931F9327
:101000005C014B013A012901D9DF84E191E0F5014E
:10101000918380839586848677866686518A408A06
:10102000138B028BF58AE48AD78AC68A118E128EB8
:10103000138E148E1F910F91FF90EF90DF90CF9041
:10104000BF90AF909F908F907F906F905F904F90E8
:101050000895DC015096ED91FC9151978081569650
:10106000ED91FC91579782FD15C0208159969C9176
:1010700059979F5F9F735A968C915A97981759F07A
:1010800059968C915997FD01E80FF11D258F5996BE
:101090009C930895808108951F920F920FB60F922E
:1010A00011242F933F934F935F936F937F938F936D
:1010B0009F93AF93BF93EF93FF938BE092E0C9DFD1
:1010C000FF91EF91BF91AF919F918F917F916F9120
:1010D0005F914F913F912F910F900FBE0F901F90F6
:1010E0001895CF92DF92EF92FF920F931F938BE0B0
:1010F00092E065EC70E044EC50E020EC30E001EC74
:1011000010E0F2ECEF2EF12CE6ECCE2ED12C6ADFC3
:101110001F910F91FF90EF90DF90CF9008958BE09B
:1011200092E09BDE20E0892B09F021E0822F0895D8
:101130001F920F920FB60F9211242F933F934F934C
:101140005F936F937F938F939F93AF93BF93EF932F
:10115000FF938BE092E0F3DDFF91EF91BF91AF91B0
:101160009F918F917F916F915F914F913F912F91BF
:101170000F900FBE0F901F901895A0E0B0E0E2EC2A
:10118000F8E08CC28C017B01C0E0D0E00EC0D80139
:10119000ED91FC910190F081E02DD7016D917D01E1
:1011A000C8010995C80FD91FA6016A010894C10892
:1011B000D108452B61F7CE01CDB7DEB7E8E08AC292
:1011C00035DC18DB1ED988EC97E0892BD9F3E0DEFB
:1011D000F9CF089521E0FC012687089521E0FC0164
:1011E00026870895CF93DF93DC011E968C911E977E
:1011F000882301F11E961C921E971F961C921F9722
:10120000CB01880F991F860F971F880F991F1C9677
:101210008C931C971D969C931D9780E0E82FF0E01F
:10122000EE0FFF1FEA0FFB1F718360838F5F863015
:10123000A8F321C01C964D915C911D971F968C912F
:101240001F97E82FF0E0EE0FFF1FEA0FFB1F208132
:101250003181EB01C21BD30B9E01240F351F1D965C
:101260003C932E931C97718360838F5F66E0B7D1A8
:101270001F969C931F971C968D919C911D9703968A
:1012800066E070E0CCD1CB01DF91CF910895CF9390
:10129000DF93EC0189818617C1F06983623039F0F0
:1012A000633041F08B81613059F461E00AC08B8179
:1012B00060E002C08B8161E0E2DC8C8161E004C00F
:1012C00060E0DDDC8C8160E0DADCDF91CF910895B5
:1012D000CF93DF93EC018A818823C1F073DB2F81E8
:1012E000388549855A85621B730B840B950B2D81BC
:1012F0003E8140E050E0621773078407950720F0B5
:101300001A821E821D8202C06A8101C06881CE01DC
:10131000BEDFDF91CF910895FC018081861729F00F
:101320006083442311F0CF01D3CF08951F93CF934F
:10133000DF93EC01122F6A835E834D8343DB6F835F
:10134000788789879A87112311F0CE01C1DFDF9159
:10135000CF911F9108950F931F938C01862FF80151
:101360006383448361E01DDCF801848161E019DC62
:101370001F910F910895FC018489882311F460E086
:1013800017C023A934A945A956A987A190A5A1A54D
:10139000B2A5281B390B4A0B5B0B878D90A1A0E0EF
:1013A000B0E060E082179307A407B50708F461E096
:1013B000862F0895CF93DF93EC0104DB6BAB7CABFE
:1013C0008DAB9EAB8F81882341F488818ADC20E03D
:1013D000892B09F021E02A870EC0EC81FD818081F4
:1013E0008E8390E00A8002C0959587950A94E2F773
:1013F000817090708A879A8589852BA93CA94DA90F
:101400005EA9981731F01B862E873F87488B598B32
:1014100013C08E859F85A889B989281B390B4A0B73
:101420005B0B8A899B89A0E0B0E082179307A40731
:10143000B50710F481E08B878B85882321F08D859B
:101440008C878A858D879D858885981729F481E00A
:101450008C8B1D8A188E04C01C8A81E08D8B1F8A9C
:101460009C858D85981719F081E08E8B03C01E8AAC
:101470001F8A188E8E898823B9F18C898823C1F040
:1014800081E08F8B898D9A8D01969A8F898F8FA19C
:1014900098A5A9A5BAA58BA39CA3ADA3BEA38BA910
:1014A0009CA9ADA9BEA98FA398A7A9A7BAA71DC03B
:1014B0008D898823D9F01F8A81E0888F8B8D9C8D40
:1014C00001969C8F8B8F8FA598A9A9A9BAA98BA7E4
:1014D0009CA7ADA7BEA78BA99CA9ADA9BEA98FA7A4
:1014E00098ABA9ABBAAB02C01F8A188E8A858987D0
:1014F000DF91CF910895CF93DF93EC01662309F03C
:1015000059DF8C89DF91CF91089560E0F4CFFF928D
:101510000F931F938C01862FF42EF8016083718343
:1015200060E03FDBF80117828081918193838283A1
:10153000F08616821186128621E02387148615868E
:1015400016861786108A118A8EE190E0938B828B23
:10155000148A258B168A178A108E128E118E148E7D
:10156000138E80E991E0968F858F8CED95E090A3A6
:10157000878F11A222A313A214A215A216A217A24A
:1015800010A611A612A613A614A615A616A617A68F
:1015900010AA11AA12AA1F910F91FF900895089501
:1015A000629FD001739FF001829FE00DF11D649F47
:1015B000E00DF11D929FF00D839FF00D749FF00DD3
:1015C000659FF00D9927729FB00DE11DF91F639F74
:1015D000B00DE11DF91FBD01CF0111240895991B24
:1015E00079E004C0991F961708F0961B881F7A951A
:1015F000C9F780950895AA1BBB1B51E107C0AA1F1C
:10160000BB1FA617B70710F0A61BB70B881F991FA3
:101610005A95A9F780959095BC01CD01089597FB47
:10162000092E07260AD077FD04D0E5DF06D000207A
:101630001AF4709561957F4F0895F6F7909581950E
:101640009F4F0895A1E21A2EAA1BBB1BFD010DC0DE
:10165000AA1FBB1FEE1FFF1FA217B307E407F50762
:1016600020F0A21BB30BE40BF50B661F771F881F3E
:10167000991F1A9469F760957095809590959B01D4
:10168000AC01BD01CF0108952F923F924F925F921E
:101690006F927F928F929F92AF92BF92CF92DF9282
:1016A000EF92FF920F931F93CF93DF93CDB7DEB7E7
:1016B000CA1BDB0B0FB6F894DEBF0FBECDBF09947B
:1016C0002A88398848885F846E847D848C849B84D2
:1016D000AA84B984C884DF80EE80FD800C811B81E0
:1016E000AA81B981CE0FD11D0FB6F894DEBF0FBE0F
:1016F000CDBFED010895EE0FFF1F0590F491E02D91
:061700000994F894FFCFEC
:1017060000FF0100010000FFFF0000010001FF00D3
:10171600000000008907BD082D074907390767073C
:1017260000000000E908BD08E908E908E908E90839
:0817360000000000E908BD08F5
:00000001FF
