:1000000062C0000088C0000086C0000084C00000FC
:1000100082C0000080C000007EC000007CC00000E4
:100020007AC0000078C0000076C0000074C00000F4
:1000300072C0000070C000006EC000006CC0000004
:10004000B1C4000068C00000EFC600001BC700007C
:1000500062C0000060C000005EC000005CC0000024
:100060005AC0000058C00000000000002400270013
:100070002A0000000000250028002B0000000000DE
:1000800023002600290004040404040404040202DA
:100090000202020203030303030301020408102007
:1000A0004080010204081020010204081020000012
:1000B0000007000201000003040600000000000029
:1000C0000000A700E00811241FBECFEFD8E0DEBF7C
:1000D000CDBF11E0A0E0B1E0EAE9F7E102C0059090
:1000E0000D92A833B107D9F712E0A8E3B1E001C03F
:1000F0001D92AA3BB107E1F710E0C6ECD0E004C0C6
:100100002297FE010E94C70BC23CD107C9F70E948B
:1001100047090C94CB0B74CFDC01ED91FC9101905D
:10012000F081E02D0995089580910502880F880FD0
:10013000E6B1E370E82BE0930502F0E0EF70F070B9
:10014000E050FF4F808108958093410108950F93FF
:100150001F938FE491E00E9465098DE791E00E9472
:1001600065098BEA91E064E040E021E00EE110E0F7
:100170000E94180B86EC91E062E040E021E00E94D2
:10018000180B81EE91E069E04AE00E94400A8CEE93
:1001900091E065E046E00E94400A1F910F910895AA
:1001A000EF92FF920F931F93CF93DF93AC017B01EC
:1001B000C0E0D0E08A010F5F1F4F89EB92E0BA01E7
:1001C0000E945209F70181937F012196A801C9304D
:1001D000D10580F389E090E0CDB7DEB7E6E00C947E
:1001E000B60B1F9387E992E032D7182F882359F076
:1001F00080914001882339F087E992E040D7BC0123
:1002000087E992E089DF812F1F9108958091410154
:100210008150823008F0E0C01BD462197309840950
:100220009509209145013091460140914701509137
:100230004801261737074807590708F0CDC087E956
:1002400092E068EF70E068DF03D41B012C019A2D67
:100250009F5FA92E80913F01981751F4289AAA24F4
:1002600060914D018CEE91E040E00E94210AB4C003
:100270008695981709F0B0C028986BC087E992E07E
:100280001ED7982F907F9A3F09F47CC09B3F20F4A3
:10029000983F09F0A1C007C09B3F09F486C09C3F6E
:1002A00009F09AC05CC0D4D3AB01BC014619570910
:1002B0006809790961F08DE791E00E94690960930E
:1002C000490170934A0180934B0190934C01C0D334
:1002D0003B014C019B2D9F5FB92E809141018230E3
:1002E00021F0833009F078C010C080913F01981749
:1002F00029F460914E0181EE91E01CC0869598171B
:1003000009F06AC081EE91E026C087E992E068EFCB
:1003100070E002DF80913F01B81689F4289A60915D
:100320004E0181EE91E041E00E94210A60914D0171
:100330008CEE91E041E00E94210ABB244DC08695DD
:10034000B81609F049C0289881EE91E061E00E945A
:100350001B0A8CEE91E061E00E941B0A3DC0809177
:100360004101833029F49093430181E080934D0152
:100370008CEF8093440181E080934E0181EE91E007
:1003800061E025C080914101833029F490934301BD
:1003900082E080934D018AEF8093440182E0809354
:1003A0004E0181EE91E063E012C080914101833003
:1003B00029F482E080934D01909343018BEF809369
:1003C000440182E080934E0181EE91E062E048ECCE
:1003D00050E021E00E942B0A04DF882309F04ECF71
:1003E00037D36619770988099909615C7742894092
:1003F000904060F0662477244301BB2481E0A4DEB2
:1004000081EE91E060E00E941B0A0EC0611471044D
:100410008104910449F080914101813029F482E006
:1004200093DE83E080934E0187E992E071D686ECFB
:1004300091E00E946F0A8BEA91E00E946F0A74DEDD
:10044000182F882309F469C086EC91E00E94570AAE
:100450008536910518F46AE070E002C064EF71E03F
:100460002091F701210F2093F701809141018150E4
:10047000823008F052C02C3F41F1243009F04DC0C9
:100480001092F701209145013091460140914701BA
:1004900050914801203781E1380781E0480780E02A
:1004A0005807D8F5CB01A0E0B0E0820F931FA41F3E
:1004B000B51F8093450190934601A0934701B093E7
:1004C000480181EE91E061E024C01092F701209193
:1004D0004501309146014091470150914801293230
:1004E000E3E23E07E0E04E07E0E05E07B0F0CB015C
:1004F000A0E0B0E0281B390B4A0B5B0B20934501B1
:1005000030934601409347015093480181EE91E0BA
:1005100062E049E150E021E09ED780914201909154
:100520004301891729F19B3F89F09C3F19F09A3FBD
:10053000A9F407C087E992E06CEF70E0EDDD81E09F
:100540000BC087E992E06AEF70E004C087E992E0AF
:100550006BEF70E0E1DD82E080934D01809143011B
:100560008093420160914D018CEE91E040E069D7AB
:1005700081EE91E03CD78CEE91E039C7EF92FF928B
:100580000F931F9394D7855F914008F09EC0109100
:100590004101123009F487C0133009F490C01130C2
:1005A00009F093C055D22091F8013091F9014091A2
:1005B000FA015091FB01261737074807590730F415
:1005C0008FE491E0EFD61093040240C080910402C2
:1005D0008F5F809304023CD2AB01BC01809100028A
:1005E00090910102A0910202B0910302481B590BA5
:1005F0006A0B7B0B4093FC015093FD016093FE015D
:100600007093FF018FE491E064D67B018C018091AF
:1006100004028430D8F020913F0130E040E050E007
:10062000C801B7010E946C0B20934501309346012D
:10063000409347015093480181EE91E063E04BE421
:1006400050E021E008D78CEE91E002C081EE91E00D
:1006500063E04BE450E021E0FED6FAD16093000263
:10066000709301028093020290930302F1D17B0107
:100670008C0160913F0170E080E090E020EA36E874
:1006800041E050E00E944D0B9B01AC012E0D3F1D3F
:10069000401F511F2093F8013093F9014093FA0154
:1006A0005093FB0112C083E04FDDAB2C80914401DD
:1006B000882311F0809343018CEE91E004C081E027
:1006C00043DD81EE91E060E0B6D61F910F91FF907F
:1006D000EF900895EF92FF920F931F93CF93DF93C4
:1006E000FC017B01C0E0D0E08F010F5F1F4FD701FD
:1006F0004D917D0189EB92E0BF01DBD52196F80198
:10070000C930D10588F389E090E0CDB7DEB7E6E0E7
:100710000C94B60B8DE79FE49093390180933801D8
:100720008091450190914601A0914701B091480107
:1007300080933A0190933B01A0933C01B0933D011B
:100740008091420180933E0180E090E068E371E097
:10075000C1DF64E670E080E090E0A0D181EE91E03E
:1007600062E04CED55E021E076D68CEE91E062E05F
:100770004CED55E021E06FC6CF93DF93EC0186ECA2
:1007800091E095D68D5D954010F0C4DF3BC0CE0161
:100790008ED68D5D9540B0F08091400190E0882329
:1007A00009F491E090934001992331F0913051F593
:1007B00081EE91E062E003C081EE91E061E04DE402
:1007C00051E011C0CE0173D620914201855F914066
:1007D00068F02C3FB9F48AEF809343018CEE91E0EE
:1007E00063E046E950E021E036D60CC02A3F50F0E5
:1007F0002C3F18F02C3F31F402C08CEF01C08BEF7E
:1008000080934301DF91CF910895299A5D9A8DE7F6
:100810009FE4909339018093380188E180933F01F0
:1008200080E29EE4A0E0B0E080933A0190933B0127
:10083000A0933C01B0933D018CEF80933E0181E099
:100840008093400180E090E068E371E043DF64E67C
:1008500070E080E090E022D18BEA91E061E0D4D6B4
:100860008823A9F786EC91E061E0CED6882379F75A
:1008700029985D9808958091640084608093640055
:10088000809164008068809364008DE061E0C0D155
:100890002D9A8EE060E0BCD1409A8FE060E0B8D144
:1008A000419A88E061E0B4D180E090E068E371E0D3
:1008B00077DC80913801909139018D579F4461F424
:1008C0008BEA91E061E0A0D6882339F086EC91E0D4
:1008D00061E09AD6882309F098DF80913E018B3F32
:1008E00009F48AEF8093430180913A0190913B0192
:1008F000A0913C01B0913D01809345019093460148
:10090000A0934701B0934801662477244301222431
:1009100033242101AA24BB2481E080934E0114DCFE
:1009200087E992E042E15AE760E070E015D310E019
:100930001B5F8AE0612F70E00DD186E0612F70E0CF
:1009400009D164E070E080E090E0A8D0103C80F332
:1009500013EC15508AE0612F70E0FCD086E0612F27
:1009600070E0F8D064E070E080E090E097D016305E
:1009700080F78AE060E070E0EDD086E060E070E053
:10098000E9D066E970E080E090E088D086EC91E004
:100990006EEB72E088D58BEA91E06CEB73E083D567
:1009A0002D9808951F920F920FB60F9211242F9336
:1009B0003F938F939F93AF93BF9380910A0290913F
:1009C0000B02A0910C02B0910D0230910E02019623
:1009D000A11DB11D232F2D5F2D3720F02D5701961E
:1009E000A11DB11D20930E0280930A0290930B0269
:1009F000A0930C02B0930D02809106029091070221
:100A0000A0910802B09109020196A11DB11D809329
:100A1000060290930702A0930802B0930902BF91C7
:100A2000AF919F918F913F912F910F900FBE0F909B
:100A30001F9018958FB7F89420910A0230910B02FD
:100A400040910C0250910D028FBFB901CA01089567
:100A50009FB7F89420910602309107024091080256
:100A60005091090286B5A89B06C08F3F21F02F5FE9
:100A70003F4F4F4F5F4F9FBF542F432F322F22279F
:100A8000280F311D411D511D82E0220F331F441FCD
:100A9000551F8A95D1F7B901CA010895EF92FF92C7
:100AA0000F931F93CF93DF937B018C01D1DFEB0179
:100AB0000DC0CEDF6C1B7D0B685E7340D0F30894D5
:100AC000E108F10801091109C851DC4FE114F104F2
:100AD0000105110571F7CDB7DEB7E6E047C678949A
:100AE00084B5826084BD84B5816084BD85B5826033
:100AF00085BD85B5816085BDEEE6F0E080818160D1
:100B00008083E1E8F0E010828081826080838081D0
:100B100081608083E0E8F0E0808181608083E1EBA8
:100B2000F0E0808184608083E0EBF0E08081816090
:100B30008083EAE7F0E08081846080838081826046
:100B4000808380818160808380818068808310922F
:100B5000C10008951F93CF93DF93182FEB0161E03D
:100B600057D0209709F44AC0CF3FD10509F449C0B6
:100B7000E12FF0E0E255FF4F84918330C1F08430E3
:100B800028F4813051F08230B1F50CC0863019F173
:100B9000873049F1843079F514C084B5806884BD0C
:100BA000C7BD32C084B5806284BDC8BD2DC08091F0
:100BB0008000806880938000D0938900C093880073
:100BC00023C080918000806280938000D0938B004E
:100BD000C0938A0019C08091B00080688093B000F3
:100BE000C093B30011C08091B00080628093B000C8
:100BF000C093B40009C0C038D1051CF4812F60E057
:100C000002C0812F61E072D0DF91CF911F910895D2
:100C1000CF93DF93482F50E0CA0186569F4FFC01C7
:100C200034914A575F4FFA018491882379F1482F14
:100C300050E0440F551FCA0188599F4FFC01A591F0
:100C4000B4914E585F4FFA01C591D491662351F487
:100C50002FB7F8948C91932F909589238C9388814A
:100C600089230BC0623061F42FB7F8948C91932FD5
:100C7000909589238C938881832B88832FBF06C00E
:100C80009FB7F8948C91832B8C939FBFDF91CF916A
:100C90000895833071F0843028F48130A1F08230DF
:100CA00021F514C08630B1F08730D1F08430E9F4FA
:100CB00004C0809180008F7703C0809180008F7D79
:100CC00080938000089584B58F7702C084B58F7DAE
:100CD00084BD08958091B0008F778093B00008950F
:100CE0008091B0008F7D8093B0000895FF920F93A4
:100CF0001F93F62E482F50E0CA0182559F4FFC01EA
:100D00002491CA0186569F4FFC0114914A575F4FA8
:100D1000FA0104910023C1F0222311F0822FB9DFE0
:100D2000E02FF0E0EE0FFF1FEE58FF4FA591B491BA
:100D30009FB7F894FF2021F48C911095812302C075
:100D40008C91812B8C939FBF1F910F91FF900895E1
:100D50000F931F93482F50E0CA0182559F4FFC010B
:100D60002491CA0186569F4FFC0104914A575F4F58
:100D7000FA011491112319F420E030E013C022236A
:100D800011F0822F86DFE12FF0E0EE0FFF1FE45815
:100D9000FF4FA591B4918C91802320E030E011F0B9
:100DA00021E030E0C9011F910F910895FC0184E317
:100DB00091E0918380831382128208950F931F9391
:100DC0008C01F4DF84E291E0F8019183808388EE66
:100DD00093E0A0E0B0E084839583A683B7831F915E
:100DE0000F910895CF93DF93482FDB01EB01C05C97
:100DF000DF4F288139812F5F3F4F2F733070AE5BFB
:100E0000BF4F8D919C911197A254B040281739077C
:100E100039F0E881F981EA0FFB1F40833983288389
:100E2000DF91CF91089508951F920F920FB60F9200
:100E300011242F933F934F935F936F937F938F93DF
:100E40009F93AF93BF93EF93FF938091C00082FD78
:100E500006C08091C6006FE072E0C4DF02C08091DE
:100E6000C600FF91EF91BF91AF919F918F917F91BC
:100E70006F915F914F913F912F910F900FBE0F9007
:100E80001F9018951F920F920FB60F9211242F9357
:100E90003F938F939F93EF93FF9320919302309111
:100EA000940280919502909196022817390731F4A7
:100EB0008091C1008F7D8093C10014C0E0919502A4
:100EC000F0919602ED5AFD4F20818091950290910C
:100ED000960201968F73907090939602809395027C
:100EE0002093C600FF91EF919F918F913F912F9199
:100EF0000F900FBE0F901F901895A2E0B0E0E2E8AF
:100F0000F7E00CC43C012B011A013A83298356DF18
:100F100084E191E0F301918380835586448637868E
:100F2000268689819A81918B808B138B028BF58A1F
:100F3000E48AD78AC68AB18EA08E938E828E8F89DC
:100F4000848F888D858F898D868F8A8D878F8B8DF5
:100F500080A32296E2E1FEC3A0E0B0E0E1EBF7E07F
:100F6000E8C3EC017A018B01DD24403021EE520709
:100F700020E0620720E0720711F0DD24D394EC89B1
:100F8000FD89DD2071F081E090E008A002C0880FAB
:100F9000991F0A94E2F7808360E079E08DE390E0A6
:100FA00005C0108260E874E88EE190E0A801970126
:100FB00093D3C901DA010197A109B109B695A795A3
:100FC0009795879520E18030920720F0DD2011F081
:100FD000DD24D5CFE889F9899083EA89FB8980836C
:100FE00019A2EE89FF89408121E030E0C9010C8C13
:100FF00002C0880F991F0A94E2F7482B4083EE89BC
:10100000FF894081C9010D8C02C0880F991F0A9485
:10101000E2F7482B4083EE89FF894081C9010E8C9D
:1010200002C0880F991F0A94E2F7482B4083EE898B
:10103000FF8980810F8C02C0220F331F0A94E2F7D0
:10104000209528232083CDB7DEB7E7E08EC3DC01EF
:101050001C96ED91FC911D97E05CFF4F2191319121
:1010600080819181281B390B2F733070C90108953D
:1010700087E992E0ECDF892B09F0D5CE0895DC01F9
:101080001C96ED91FC911D97E05CFF4F2081318112
:10109000E054F040DF01AE5BBF4F8D919C91119702
:1010A0002817390719F42FEF3FEF07C08D919C9156
:1010B000E80FF91F8081282F30E0C9010895DC0175
:1010C0001C96ED91FC911D97E05CFF4F20813181D2
:1010D000E054F040DF01AE5BBF4F8D919C911197C2
:1010E0002817390719F42FEF3FEF10C08D919C910D
:1010F0001197E80FF91F20818D919C91119701960E
:101100008F73907011969C938E9330E0C90108956F
:10111000DC0191968C919197882339F05496ED914A
:10112000FC915597808186FFF4CF91961C9208958B
:10113000DC011E96ED91FC911F97E05CFF4F208132
:101140003181E054F0402F5F3F4F2F733070EE5BE2
:10115000FF4F80819181E254F04028173907B9F39D
:10116000E05CFF4F80819181E054F040E80FF91F6F
:1011700060831E96ED91FC911F97E05CFF4F3183D9
:1011800020835696ED91FC915797208181E090E065
:101190005F960C905F9702C0880F991F0A94E2F740
:1011A000282B208381E091968C9391975496ED9112
:1011B000FC91559780818064808381E090E0089560
:1011C0008F929F92AF92BF92CF92DF92EF92FF9257
:1011D0000F931F9300D000D00F92EDB7FEB731965A
:1011E00084E0ADB7BEB711968C9383E0818387E02E
:1011F000828385E0838381E0848387E992E06FE0E6
:1012000072E043E552E025EC30E004EC10E0B0EC95
:10121000EB2EF12CA1ECCA2ED12CF2ECAF2EB12C7E
:10122000E6EC8E2E912C69DE0F900F900F900F90B0
:101230000F901F910F91FF90EF90DF90CF90BF9094
:10124000AF909F908F900895A0E0B0E0E9E2F9E0C0
:101250006FC28C017B01C0E0D0E00EC0D801ED91DF
:10126000FC910190F081E02DD7016D917D01C801C5
:101270000995C80FD91FA6016A010894C108D108B1
:10128000452B61F7CE01CDB7DEB7E8E06DC227DCB4
:10129000F2DA0E94060188E398E0892BD1F3E8DEB8
:1012A000F8CF0895F999FECF72BD61BDF89A80B567
:1012B0000895F999FECF1FBA72BD61BD40BD0FB64A
:1012C000F894FA9AF99A0FBE0895FC0181E08083A0
:1012D0000895A0E0B0E0EEE6F9E028C2EC017A0162
:1012E0008B018881882301F118821982DB01CA01F0
:1012F00033E0880F991FAA1FBB1F3A95D1F78AA325
:101300009BA3ACA3BDA380E0E82FF0E0EE0FFF1F8E
:10131000EE0FFF1FEC0FFD1FE282F38204831583A3
:101320008F5F883088F329C04AA15BA16CA17DA1A1
:101330002981E22FF0E0EE0FFF1FEE0FFF1F329624
:10134000EC0FFD1F80819181A281B381570168015B
:10135000A81AB90ACA0ADB0AD601C501840F951F6B
:10136000A61FB71F8AA39BA3ACA3BDA3E082F182F3
:10137000028313832F5F277029832AA13BA14CA1ED
:101380005DA12C5F3F4F4F4F5F4F83E056954795D0
:10139000379527958A95D1F7B901CA01CDB7DEB740
:1013A000EAE0E0C1FC0181E080830895CF93DF9300
:1013B000EC0189818617C1F06983623039F06330AE
:1013C00041F08B81613059F461E00AC08B8160E0AB
:1013D00002C08B8161E08ADC8C8161E004C060E046
:1013E00085DC8C8160E082DCDF91CF910895CF9322
:1013F000DF93EC018A818823C1F01CDB2F813885C3
:1014000049855A85621B730B840B950B2D813E8198
:1014100040E050E0621773078407950720F01A82B6
:101420001E821D8202C06A8101C06881CE01BEDFBA
:10143000DF91CF910895FC011082662309F0D7CF88
:101440000895FC018081861729F06083442311F000
:10145000CF01CDCF08951F93CF93DF93EC01122FCF
:101460006A835E834D83E6DA6F83788789879A87FC
:10147000112311F0CE01BBDFDF91CF911F910895B1
:101480000F931F938C01862FF8016383448361E0DF
:10149000BFDBF801848161E0BBDB1F910F910895F0
:1014A000FC0111820895FC01758B648B0895CF9324
:1014B000DF93EC018C819D81AE81BF818F5F9F4F57
:1014C000AF4FBF4F19F460E070E005C0B3DA8C8114
:1014D0009D81681B790BCB01DF91CF910895EF922D
:1014E000FF920F931F93CF93DF93EC018A8180FFCC
:1014F00002C0826001C08D7F8A83888129DC2981B6
:1015000030E04A818217930711F44E7F01C0416099
:101510004A834A81242F30E0C90195958795822717
:10152000932780FF45C086DA7B018C012A853B85A5
:101530004C855D858B81882349F08E859F85B70119
:10154000621B730B6817790708F45AC073DA6A874D
:101550007B878C879D878A8180FF12C0888D998DBB
:101560000196998F888FE889F989309711F0CE011B
:10157000099560DA6C837D838E839F831A8E14C0F5
:10158000EA89FB89309711F0CE010995EC89FD8934
:10159000309711F0CE0109958FEF9FEFAFEFBFEFBE
:1015A0008C839D83AE83BF838A8184608A8328C0B5
:1015B0004B7F4A838C819D81AE81BF818F5F9F4F1E
:1015C000AF4FBF4FE9F08A8D8823D1F433DA2C81F5
:1015D0003D814E815F81621B730B840B950B2885C7
:1015E000398540E050E0261737074807590740F48F
:1015F000EE89FF89309721F0CE01099581E08A8F2D
:10160000CDB7DEB7E6E0B2C0CF93DF93EC0166233F
:1016100009F065DF8A818170DF91CF910895FC0127
:1016200081E08183623019F4808161E05FCB0895AD
:10163000EF92FF920F931F93CF93DF93EC01862FCE
:10164000E42EF22E688360E0E3DAFB821F870E87C8
:10165000F1D96A877B878C879D87EE2019F4CE01AC
:101660001FDF03C0CE016E2DDADF1A828981882345
:1016700019F481E08A8301C01A82198A188A1B8AA8
:101680001A8A1D8A1C8A1F8A1E8A198E188E81E06A
:101690008A8FCDB7DEB7E6E069C0629FD001739F45
:1016A000F001829FE00DF11D649FE00DF11D929FFE
:1016B000F00D839FF00D749FF00D659FF00D99273D
:1016C000729FB00DE11DF91F639FB00DE11DF91F61
:1016D000BD01CF0111240895A1E21A2EAA1BBB1B44
:1016E000FD010DC0AA1FBB1FEE1FFF1FA217B307EE
:1016F000E407F50720F0A21BB30BE40BF50B661F04
:10170000771F881F991F1A9469F7609570958095C7
:1017100090959B01AC01BD01CF0108952F923F929E
:101720004F925F926F927F928F929F92AF92BF92F1
:10173000CF92DF92EF92FF920F931F93CF93DF939D
:10174000CDB7DEB7CA1BDB0B0FB6F894DEBF0FBEFA
:10175000CDBF09942A88398848885F846E847D8447
:101760008C849B84AA84B984C884DF80EE80FD8049
:101770000C811B81AA81B981CE0FD11D0FB6F894BF
:10178000DEBF0FBECDBFED010895EE0FFF1F059028
:0A179000F491E02D0994F894FFCFC6
:10179A0000FF0100010000FFFF0000010001FF003F
:1017AA00000000009808240927085F083F088808F5
:1017BA000000000051092409510951095109510930
:0817CA00000000005109240990
:00000001FF
