:1000000062C0000088C0000086C0000084C00000FC
:1000100082C0000080C000007EC000007CC00000E4
:100020007AC0000078C0000076C0000074C00000F4
:1000300072C0000070C000006EC000006CC0000004
:1000400011C5000068C000004FC700007BC700005A
:1000500062C0000060C000005EC000005CC0000024
:100060005AC0000058C00000000000002400270013
:100070002A0000000000250028002B0000000000DE
:1000800023002600290004040404040404040202DA
:100090000202020203030303030301020408102007
:1000A0004080010204081020010204081020000012
:1000B0000007000201000003040600000000000029
:1000C0000000CF00400911241FBECFEFD8E0DEBFF3
:1000D000CDBF11E0A0E0B1E0ECE8F8E102C005908E
:1000E0000D92A833B107D9F712E0A8E3B1E001C03F
:1000F0001D92A63AB107E1F710E0C6ECD0E004C0CB
:100100002297FE010E94400CC23CD107C9F70E9411
:10011000A7090C94440C74CFDC01ED91FC91019083
:10012000F081E02D099508958091F101880F880FE5
:10013000E6B1E370E82BE093F101F0E0EF70F070CE
:10014000E050FF4F80810895809341010895CF9240
:10015000DF92EF92FF920F931F93042FC22E90E035
:1001600070E06F707070682B792B83E8E82E82E066
:10017000F82EC701D1DF10E00F771070C701B8016A
:10018000CBDFDD248FE7C822DD24C701B601C4DF41
:100190001F910F91FF90EF90DF90CF9008950F93F4
:1001A0001F938FE491E00E94C50985E791E00E94CA
:1001B000C5098BE991E064E040E021E002E310E052
:1001C0000E946A0B84EB91E062E040E021E00E9433
:1001D0006A0B8DEC91E069E04AE00E94A00A88ED8C
:1001E00091E065E046E00E94A00A1F910F910895FA
:1001F000EF92FF920F931F93CF93DF93AC017B019C
:10020000C0E0D0E08A010F5F1F4F85EA92E0BA019B
:100210000E94B209F70181937F012196A801C9309C
:10022000D10580F389E090E0CDB7DEB7E6E00C942D
:100230001B0CFF920F931F9383E892E0A0D7182F17
:10024000082F007F83E892E09AD7F82E003C31F027
:10025000003D21F083E892E092D7982F1F70B801FB
:100260008F2D1F910F91FF90089583E892E04FD753
:10027000181619064CF483E892E061D787FD04C094
:1002800083E892E07CD7F1CF83E892E058D783E807
:1002900092E03DD762E070E00E94BE0B862F089589
:1002A00037D49B01AC0182017101809141018150E1
:1002B000823008F0F5C08091450190914601A091EF
:1002C0004701B091480122193309440955092817FB
:1002D00039074A075B0708F4E3C083E892E068EF58
:1002E00070E01ADF15D41B012C019A2D9F5FA92EF7
:1002F00080913F01981751F4289AAA2460914D01EA
:1003000088ED91E040E00E94810ACAC08695981766
:1003100009F0C6C028986EC08CDF162F672F482FB3
:10032000292F1A3F09F481C01B3F20F4183F09F020
:10033000B1C007C01B3F09F490C01C3F09F0AAC020
:100340005CC0E6D3AB01BC014619570968097909BD
:1003500061F085E791E00E94C909609349017093BB
:100360004A0180934B0190934C01D2D33B014C0145
:100370009B2D9F5FB92E80914101823021F0833007
:1003800009F08EC013C080913F01981729F4609145
:100390004E018DEC91E01FC08695981709F080C042
:1003A0008DEC91E061E00E947B0A7AC083E892E0E4
:1003B00068EF70E0B1DE80913F01B81689F4289AA9
:1003C00060914E018DEC91E041E00E94810A6091C4
:1003D0004D0188ED91E041E00E94810ABB2460C09C
:1003E0008695B81609F05CC028988DEC91E061E024
:1003F0000E947B0A88ED91E0D5CF80914101833046
:1004000051F483E892E06CEF70E086DE10934301D4
:1004100081E080934D018CEF8093440181E08093D3
:100420004E018DEC91E061E02FC08091410183305D
:1004300051F483E892E06AEF70E06EDE10934301BE
:1004400082E080934D018AEF8093440182E08093A3
:100450004E018DEC91E063E017C080914101833043
:1004600051F483E892E06BEF70E056DE82E0809317
:100470004D01109343018BEF8093440182E0809300
:100480004E018DEC91E062E048EC50E021E00E94EA
:100490008B0A06C080914001882311F0812F57DE1E
:1004A000E4DE882309F038CF33D366197709880949
:1004B0009909605C77428940904060F06624772417
:1004C0004301BB2481E040DE8DEC91E060E00E94BE
:1004D0007B0A0EC0611471048104910449F080917B
:1004E0004101813029F482E02FDE83E080934E01C8
:1004F00084EB91E00E94CB0A8BE991E00E94CB0A49
:1005000013DE182F882309F469C084EB91E00E9460
:10051000B70A8536910518F46AE070E002C064EF0E
:1005200071E02091E301210F2093E30180914101CB
:100530008150823008F052C02C3F41F1243009F044
:100540004DC01092E3012091450130914601409148
:10055000470150914801203781E1380781E0480781
:1005600080E05807D8F5CB01A0E0B0E0820F931FE0
:10057000A41FB51F8093450190934601A0934701A6
:10058000B09348018DEC91E062E024C01092E30149
:100590002091450130914601409147015091480119
:1005A0002938E3E13E07E0E04E07E0E05E07B0F007
:1005B000CB01A0E0B0E0281B390B4A0B5B0B20936A
:1005C00045013093460140934701509348018DEC1B
:1005D00091E061E049E150E021E09DD78091420146
:1005E00090914301891729F19B3F89F09C3F19F0B5
:1005F0009A3FA9F407C083E892E06CEF70E08CDDCD
:1006000081E00BC083E892E06AEF70E004C083E809
:1006100092E06BEF70E080DD82E080934D0180918D
:1006200043018093420160914D0188ED91E040E0EB
:1006300068D78DEC91E03BD788ED91E038C7EF9219
:10064000FF920F931F9393D7855F914008F09DC051
:1006500010914101123009F486C0133009F48FC0A3
:10066000113009F092C054D22091E4013091E5019B
:100670004091E6015091E7016217730784079507DF
:1006800030F08FE491E0EED61093F00140C08091FD
:10069000F0018F5F8093F0013BD2AB01BC018091F0
:1006A000EC019091ED01A091EE01B091EF01481B9A
:1006B000590B6A0B7B0B4093E8015093E90160935F
:1006C000EA017093EB018FE491E063D67B018C012A
:1006D0008091F0018430D8F020913F0130E040E07B
:1006E00050E0C801B7010E94D10B2093450130931F
:1006F000460140934701509348018DEC91E063E03F
:100700004BE450E021E007D788ED91E002C08DEC8A
:1007100091E063E04BE450E021E0FDD6F9D1609335
:10072000EC017093ED018093EE019093EF01F0D115
:100730007B018C0160913F0170E080E090E020EA55
:1007400036E841E050E0FBD79B01AC012E0D3F1D88
:10075000401F511F2093E4013093E5014093E601CF
:100760005093E70112C083E0EFDCAB2C8091440191
:10077000882311F08093430188ED91E004C081E06B
:10078000E3DC8DEC91E060E0B6D61F910F91FF9015
:10079000EF900895EF92FF920F931F93CF93DF9303
:1007A000FC017B01C0E0D0E08F010F5F1F4FD7013C
:1007B0004D917D0185EA92E0BF01DBD52196F801DC
:1007C000C930D10588F389E090E0CDB7DEB7E6E027
:1007D0000C941B0C8BE094E69093390180933801C4
:1007E0008091450190914601A0914701B091480147
:1007F00080933A0190933B01A0933C01B0933D015B
:100800008091420180933E0180E090E068E371E0D6
:10081000C1DF64E670E080E090E0A0D18DEC91E073
:1008200062E04CED55E021E076D688ED91E062E0A3
:100830004CED55E021E06FC6CF93DF93EC0184EBE4
:1008400091E095D68D5D954010F0C4DF3BC0CE01A0
:100850008ED68C5D9540B0F08091400190E0882369
:1008600009F491E090934001992331F0913051F5D2
:100870008DEC91E062E003C08DEC91E061E04DE42D
:1008800051E011C0CE0173D620914201845F9140A6
:1008900068F02C3FB9F48AEF8093430188ED91E032
:1008A00063E046E950E021E036D60CC02A3F50F024
:1008B0002C3F18F02C3F31F402C08CEF01C08BEFBD
:1008C00080934301DF91CF910895299A5D9A8BE03F
:1008D00094E6909339018093380188E180933F0139
:1008E00080E29EE4A0E0B0E080933A0190933B0167
:1008F000A0933C01B0933D018CEF80933E0181E0D9
:100900008093400180E090E068E371E043DF64E6BB
:1009100070E080E090E022D18BE991E061E0C6D602
:100920008823A9F784EB91E061E0C0D6882379F7AA
:1009300029985D9808958091640084608093640094
:10094000809164008068809364008DE061E0C0D194
:100950002D9A8EE060E0BCD1409A8FE060E0B8D183
:10096000419A88E061E0B4D180E090E068E371E012
:100970003FDC80913801909139018B50944661F4AD
:100980008BE991E061E092D6882339F084EB91E025
:1009900061E08CD6882309F098DF80913E018B3F7F
:1009A00009F48AEF8093430180913A0190913B01D1
:1009B000A0913C01B0913D01809345019093460187
:1009C000A0934701B0934801662477244301222471
:1009D00033242101AA24BB2481E080934E01B4DB9F
:1009E00083E892E042E15AE760E070E015D310E05E
:1009F0001B5F8AE0612F70E00DD186E0612F70E00F
:100A000009D164E070E080E090E0A8D0103C80F371
:100A100013EC15508AE0612F70E0FCD086E0612F66
:100A200070E0F8D064E070E080E090E097D016309D
:100A300080F78AE060E070E0EDD086E060E070E092
:100A4000E9D066E970E080E090E088D084EB91E046
:100A50006FE173E088D58BE991E06CE174E083D5B8
:100A60002D9808951F920F920FB60F9211242F9375
:100A70003F938F939F93AF93BF938091F601909193
:100A8000F701A091F801B091F9013091FA010196B6
:100A9000A11DB11D232F2D5F2D3720F02D5701965D
:100AA000A11DB11D2093FA018093F6019093F701E7
:100AB000A093F801B093F9018091F2019091F301B4
:100AC000A091F401B091F5010196A11DB11D809393
:100AD000F2019093F301A093F401B093F501BF915B
:100AE000AF919F918F913F912F910F900FBE0F90DB
:100AF0001F9018958FB7F8942091F6013091F70167
:100B00004091F8015091F9018FBFB901CA010895D0
:100B10009FB7F8942091F2013091F3014091F401D4
:100B20005091F50186B5A89B06C08F3F21F02F5F3D
:100B30003F4F4F4F5F4F9FBF542F432F322F2227DE
:100B4000280F311D411D511D82E0220F331F441F0C
:100B5000551F8A95D1F7B901CA010895EF92FF9206
:100B60000F931F93CF93DF937B018C01D1DFEB01B8
:100B70000DC0CEDF6C1B7D0B685E7340D0F3089414
:100B8000E108F10801091109C851DC4FE114F10431
:100B90000105110571F7CDB7DEB7E6E04CC67894D4
:100BA00084B5826084BD84B5816084BD85B5826072
:100BB00085BD85B5816085BDEEE6F0E08081816010
:100BC0008083E1E8F0E01082808182608083808110
:100BD00081608083E0E8F0E0808181608083E1EBE8
:100BE000F0E0808184608083E0EBF0E080818160D0
:100BF0008083EAE7F0E08081846080838081826086
:100C0000808380818160808380818068808310926E
:100C1000C10008951F93CF93DF93182FEB0161E07C
:100C200057D0209709F44AC0CF3FD10509F449C0F5
:100C3000E12FF0E0E255FF4F84918330C1F0843022
:100C400028F4813051F08230B1F50CC0863019F1B2
:100C5000873049F1843079F514C084B5806884BD4B
:100C6000C7BD32C084B5806284BDC8BD2DC080912F
:100C70008000806880938000D0938900C0938800B2
:100C800023C080918000806280938000D0938B008D
:100C9000C0938A0019C08091B00080688093B00032
:100CA000C093B30011C08091B00080628093B00007
:100CB000C093B40009C0C038D1051CF4812F60E096
:100CC00002C0812F61E072D0DF91CF911F91089512
:100CD000CF93DF93482F50E0CA0186569F4FFC0107
:100CE00034914A575F4FFA018491882379F1482F54
:100CF00050E0440F551FCA0188599F4FFC01A59130
:100D0000B4914E585F4FFA01C591D491662351F4C6
:100D10002FB7F8948C91932F909589238C93888189
:100D200089230BC0623061F42FB7F8948C91932F14
:100D3000909589238C938881832B88832FBF06C04D
:100D40009FB7F8948C91832B8C939FBFDF91CF91A9
:100D50000895833071F0843028F48130A1F082301E
:100D600021F514C08630B1F08730D1F08430E9F439
:100D700004C0809180008F7703C0809180008F7DB8
:100D800080938000089584B58F7702C084B58F7DED
:100D900084BD08958091B0008F778093B00008954E
:100DA0008091B0008F7D8093B0000895FF920F93E3
:100DB0001F93F62E482F50E0CA0182559F4FFC0129
:100DC0002491CA0186569F4FFC0114914A575F4FE8
:100DD000FA0104910023C1F0222311F0822FB9DF20
:100DE000E02FF0E0EE0FFF1FEE58FF4FA591B491FA
:100DF0009FB7F894FF2021F48C911095812302C0B5
:100E00008C91812B8C939FBF1F910F91FF90089520
:100E10000F931F93482F50E0CA0182559F4FFC014A
:100E20002491CA0186569F4FFC0104914A575F4F97
:100E3000FA011491112319F420E030E013C02223A9
:100E400011F0822F86DFE12FF0E0EE0FFF1FE45854
:100E5000FF4FA591B4918C91802320E030E011F0F8
:100E600021E030E0C9011F910F910895FC0184E356
:100E700091E0918380831382128208950F931F93D0
:100E80008C01F4DF84E291E0F8019183808388EEA5
:100E900093E0A0E0B0E084839583A683B7831F919D
:100EA0000F910895CF93DF93482FDB01EB01C05CD6
:100EB000DF4F288139812F5F3F4F2F733070AE5B3A
:100EC000BF4F8D919C911197A254B04028173907BC
:100ED00039F0E881F981EA0FFB1F408339832883C9
:100EE000DF91CF91089508951F920F920FB60F9240
:100EF00011242F933F934F935F936F937F938F931F
:100F00009F93AF93BF93EF93FF938091C00082FDB7
:100F100006C08091C6006BEF71E0C4DF02C0809113
:100F2000C600FF91EF91BF91AF919F918F917F91FB
:100F30006F915F914F913F912F910F900FBE0F9046
:100F40001F9018951F920F920FB60F9211242F9396
:100F50003F938F939F93EF93FF9320917F02309164
:100F6000800280918102909182022817390731F422
:100F70008091C1008F7D8093C10014C0E0918102F7
:100F8000F0918202E15CFD4F20818091810290917D
:100F9000820201968F7390709093820280938102F7
:100FA0002093C600FF91EF919F918F913F912F91D8
:100FB0000F900FBE0F901F901895A2E0B0E0E2EEE8
:100FC000F7E011C43C012B011A013A83298356DF53
:100FD00084E191E0F30191838083558644863786CE
:100FE000268689819A81918B808B138B028BF58A5F
:100FF000E48AD78AC68AB18EA08E938E828E8F891C
:10100000848F888D858F898D868F8A8D878F8B8D34
:1010100080A32296E2E103C4A0E0B0E0E1E1F8E0C1
:10102000EDC3EC017A018B01DD24403021EE520743
:1010300020E0620720E0720711F0DD24D394EC89F0
:10104000FD89DD2071F081E090E008A002C0880FEA
:10105000991F0A94E2F7808360E079E08DE390E0E5
:1010600005C0108260E874E88EE190E0A801970165
:1010700098D3C901DA010197A109B109B695A795DD
:101080009795879520E18030920720F0DD2011F0C0
:10109000DD24D5CFE889F9899083EA89FB898083AB
:1010A00019A2EE89FF89408121E030E0C9010C8C52
:1010B00002C0880F991F0A94E2F7482B4083EE89FB
:1010C000FF894081C9010D8C02C0880F991F0A94C5
:1010D000E2F7482B4083EE89FF894081C9010E8CDD
:1010E00002C0880F991F0A94E2F7482B4083EE89CB
:1010F000FF8980810F8C02C0220F331F0A94E2F710
:10110000209528232083CDB7DEB7E7E093C3DC0129
:101110001C96ED91FC911D97E05CFF4F2191319160
:1011200080819181281B390B2F733070C90108957C
:1011300083E892E0ECDF892B09F0D5CE0895DC013D
:101140001C96ED91FC911D97E05CFF4F2081318151
:10115000E054F040DF01AE5BBF4F8D919C91119741
:101160002817390719F42FEF3FEF07C08D919C9195
:10117000E80FF91F8081282F30E0C9010895DC01B4
:101180001C96ED91FC911D97E05CFF4F2081318111
:10119000E054F040DF01AE5BBF4F8D919C91119701
:1011A0002817390719F42FEF3FEF10C08D919C914C
:1011B0001197E80FF91F20818D919C91119701964D
:1011C0008F73907011969C938E9330E0C9010895AF
:1011D000DC0191968C919197882339F05496ED918A
:1011E000FC915597808186FFF4CF91961C920895CB
:1011F000DC011E96ED91FC911F97E05CFF4F208172
:101200003181E054F0402F5F3F4F2F733070EE5B21
:10121000FF4F80819181E254F04028173907B9F3DC
:10122000E05CFF4F80819181E054F040E80FF91FAE
:1012300060831E96ED91FC911F97E05CFF4F318318
:1012400020835696ED91FC915797208181E090E0A4
:101250005F960C905F9702C0880F991F0A94E2F77F
:10126000282B208381E091968C9391975496ED9151
:10127000FC91559780818064808381E090E008959F
:101280008F929F92AF92BF92CF92DF92EF92FF9296
:101290000F931F9300D000D00F92EDB7FEB7319699
:1012A00084E0ADB7BEB711968C9383E0818387E06D
:1012B000828385E0838381E0848383E892E06BEF1F
:1012C00071E04FE352E025EC30E004EC10E0B0ECCC
:1012D000EB2EF12CA1ECCA2ED12CF2ECAF2EB12CBE
:1012E000E6EC8E2E912C69DE0F900F900F900F90F0
:1012F0000F901F910F91FF90EF90DF90CF90BF90D4
:10130000AF909F908F900895A0E0B0E0E9E8F9E0F9
:1013100074C28C017B01C0E0D0E00EC0D801ED9119
:10132000FC910190F081E02DD7016D917D01C80104
:101330000995C80FD91FA6016A010894C108D108F0
:10134000452B61F7CE01CDB7DEB7E8E072C227DCEE
:10135000F2DA0E94500188E998E0892BD1F3E8DEA7
:10136000F8CF0895F999FECF72BD61BDF89A80B5A6
:101370000895F999FECF1FBA72BD61BD40BD0FB689
:10138000F894FA9AF99A0FBE0895FC0181E08083DF
:101390000895A0E0B0E0EEECF9E02DC2EC017A0196
:1013A0008B018881882301F118821982DB01CA012F
:1013B00033E0880F991FAA1FBB1F3A95D1F78AA364
:1013C0009BA3ACA3BDA380E0E82FF0E0EE0FFF1FCE
:1013D000EE0FFF1FEC0FFD1FE282F38204831583E3
:1013E0008F5F883088F329C04AA15BA16CA17DA1E1
:1013F0002981E22FF0E0EE0FFF1FEE0FFF1F329664
:10140000EC0FFD1F80819181A281B381570168019A
:10141000A81AB90ACA0ADB0AD601C501840F951FAA
:10142000A61FB71F8AA39BA3ACA3BDA3E082F18232
:10143000028313832F5F277029832AA13BA14CA12C
:101440005DA12C5F3F4F4F4F5F4F83E0569547950F
:10145000379527958A95D1F7B901CA01CDB7DEB77F
:10146000EAE0E5C1FC0181E080830895CF93DF933A
:10147000EC0189818617C1F06983623039F06330ED
:1014800041F08B81613059F461E00AC08B8160E0EA
:1014900002C08B8161E08ADC8C8161E004C060E085
:1014A00085DC8C8160E082DCDF91CF910895CF9361
:1014B000DF93EC018A818823C1F01CDB2F81388502
:1014C00049855A85621B730B840B950B2D813E81D8
:1014D00040E050E0621773078407950720F01A82F6
:1014E0001E821D8202C06A8101C06881CE01BEDFFA
:1014F000DF91CF910895FC011082662309F0D7CFC8
:101500000895FC018081861729F06083442311F03F
:10151000CF01CDCF08951F93CF93DF93EC01122F0E
:101520006A835E834D83E6DA6F83788789879A873B
:10153000112311F0CE01BBDFDF91CF911F910895F0
:101540000F931F938C01862FF8016383448361E01E
:10155000BFDBF801848161E0BBDB1F910F9108952F
:10156000FC0111820895FC01738B628B0895CF9367
:10157000DF93EC018C819D818F5F9F4F19F460E0B8
:1015800070E005C0B7DA8C819D81681B790BCB01B7
:10159000DF91CF910895EF92FF920F931F93CF9316
:1015A000DF93EC018A8180FF02C0826001C08D7FE1
:1015B0008A8388812DDC298130E04A818217930754
:1015C00011F44E7F01C041604A834A81242F30E0EC
:1015D000C901959587958227932780FF3FC08ADAB6
:1015E0007B018C01288539854A855B858B81882321
:1015F00049F08C859D85B701621B730B68177907CD
:1016000008F450C077DA688779878A879B878A8150
:1016100080FF10C08E899F8901969F8B8E8BEE85EF
:10162000FF85309711F0CE01099564DA7D836C83D4
:10163000188E10C0E889F989309711F0CE0109950C
:10164000EA89FB89309711F0CE0109958FEF9FEF62
:101650009D838C838A8184608A8324C04B7F4A83E4
:101660008C819D818F5F9F4FE9F0888D8823D1F415
:1016700041DA2C813D8140E050E0621B730B840B0A
:10168000950B2E813F8140E050E026173707480731
:10169000590740F4EC89FD89309721F0CE01099576
:1016A00081E0888FCDB7DEB7E6E0C5C0CF93DF938A
:1016B000EC01662309F06FDF8A818170DF91CF91A1
:1016C0000895FC0181E08183623019F4808161E03A
:1016D0006DCB0895EF92FF920F931F93CF93DF93FB
:1016E000EC01862FE42EF22E688360E0F1DAFB82B3
:1016F0001D870C87FFD9688779878A879B87EE20AB
:1017000019F4CE012DDF03C0CE016E2DDADF1A826F
:101710008981882319F481E08A8301C01A821F8697
:101720001E86198A188A1B8A1A8A1D8A1C8A1F8A91
:101730001E8A81E0888FCDB7DEB7E6E07CC0629F6D
:10174000D001739FF001829FE00DF11D649FE00DB9
:10175000F11D929FF00D839FF00D749FF00D659F1A
:10176000F00D9927729FB00DE11DF91F639FB00D19
:10177000E11DF91FBD01CF011124089597FB092E2A
:1017800007260AD077FD04D065D006D000201AF4D1
:10179000709561957F4F0895F6F7909581959F4FCD
:1017A0000895A1E21A2EAA1BBB1BFD010DC0AA1FA2
:1017B000BB1FEE1FFF1FA217B307E407F50720F0BA
:1017C000A21BB30BE40BF50B661F771F881F991F35
:1017D0001A9469F760957095809590959B01AC017E
:1017E000BD01CF0108952F923F924F925F926F9269
:1017F0007F928F929F92AF92BF92CF92DF92EF92A1
:10180000FF920F931F93CF93DF93CDB7DEB7CA1B21
:10181000DB0B0FB6F894DEBF0FBECDBF09942A884C
:10182000398848885F846E847D848C849B84AA84F4
:10183000B984C884DF80EE80FD800C811B81AA8181
:10184000B981CE0FD11D0FB6F894DEBF0FBECDBF4C
:10185000ED010895AA1BBB1B51E107C0AA1FBB1FC6
:10186000A617B70710F0A61BB70B881F991F5A952C
:10187000A9F780959095BC01CD010895EE0FFF1F4B
:0C1880000590F491E02D0994F894FFCF3E
:10188C0000FF0100010000FFFF0000010001FF004C
:10189C0000000000F80884098708BF089F08E808C2
:1018AC0000000000B1098409B109B109B109B109FD
:0818BC0000000000B1098409DD
:00000001FF
