:1000000064C000008AC0000088C0000086C00000F4
:1000100084C0000082C0000080C000007EC00000DC
:100020007CC000007AC0000078C0000076C00000EC
:1000300074C0000072C0000070C000006EC00000FC
:100040000C94E3086AC000000C94EE0E0C943A0F76
:1000500064C0000062C0000060C000005EC000001C
:100060005CC000005AC0000000000000240027000F
:100070002A0000000000250028002B0000000000DE
:1000800023002600290004040404040404040202DA
:100090000202020203030303030301020408102007
:1000A0004080010204081020010204081020000012
:1000B0000007000201000003040600000000000029
:1000C00000009705590D130F5E0D11241FBECFEFD1
:1000D000D8E0DEBFCDBF11E0A0E0B1E0EAEFFFE184
:1000E00002C005900D92A833B107D9F713E0A8E339
:1000F000B1E001C01D92A03DB107E1F710E0C8ECEE
:10010000D0E004C02297FE010E94ED0FC23CD1074F
:10011000C9F70E94420C0C94F10F72CFA0E0B0E03E
:10012000E4E9F0E00C94BE0F7C01EB018A01690167
:1001300009C0CE012196F6010995F70181937F014F
:100140000150104001151105A1F7CDB7DEB7E8E069
:100150000C94DA0FA0E0B0E0E0EBF0E00C94BE0FFE
:10016000EC017B018A01690109C0CE012196F701EA
:1001700061917F01F60109950150104001151105AB
:10018000A1F7CDB7DEB7E8E00C94DA0FDC01ED9112
:10019000FC910190F081E02D09950895DC01ED912D
:1001A000FC910190F081E02D099508959C01F99949
:1001B000FECF32BD21BDF89A80B508959C01F99912
:1001C000FECF1FBA32BD21BD60BD0FB6F894FA9ABA
:1001D000F99A0FBE0895F89481E00895FC0180819A
:1001E0008FBF08958091F401880F880FE6B1E37006
:1001F000E82BE093F401F0E0EF70F070E050FF4F77
:1002000080810895809341010895FC01EF5CFE4FC9
:10021000108208951F93CF93DF93EC01162F6D3F4B
:1002200038F46A3F38F4663F29F0683F89F402C029
:100230006E3F70F0CD5CDE4FE881F981C353D14051
:10024000A081B1812D913C91CF01612FF9010995D8
:10025000163F19F4CE5CDE4F1882DF91CF911F91CB
:100260000895FC018285803929F48485882311F45E
:1002700080E882870895FC018285882369F0805890
:10028000813648F481859181891729F080E099238E
:1002900019F481E0089581E00895FC018285813F91
:1002A00009F4B4C0823FF0F4803B09F453C0813BB1
:1002B00048F48039C9F1803A09F472C0803809F0F5
:1002C000E6C02BC0803D09F47BC0813D20F4803C1A
:1002D00009F0DDC07CC0803E09F443C0803F09F0D6
:1002E000D6C084C08A3F51F18B3F68F4833F09F444
:1002F000B0C0833F08F491C0863F09F4B7C0883F7F
:1003000009F0C5C018C08C3FF9F08C3FD0F08E3F8B
:10031000F1F08F3F09F0BBC0B2C0E35FFE4F208118
:100320003181ED50F14042C0E15FFE4F20813181CB
:10033000EF50F1403BC0EB5DFE4F9AC0E95DFE4FD0
:1003400097C0E75DFE4F94C0E55DFE4F91C0E35D51
:10035000FE4F8EC0ED5EFE4F20813181E351F140B2
:1003600025C0E75EFE4F20813181E951F140211522
:10037000310509F48CC0838590E08F779070648597
:1003800070E06F7770707695762F66277795679512
:10039000682B792B605070428185F9010995089589
:1003A000EF5EFE4F20813181E151F1402115310591
:1003B00009F46DC0638544858185F9010995089527
:1003C000E95EFE4F20813181E751F14006C0EB5ECE
:1003D000FE4F20813181E551F1402115310509F4AD
:1003E00056C063858185F90109950895E55EFE4F44
:1003F00020813181EB51F1402115310509F447C0CD
:100400006385CF010D96F90109950895E35EFE4FCE
:1004100020813181ED51F14022C0E15EFE4F4081EB
:100420005181EF51F1404115510589F1838590E0EB
:100430008F779070248530E02F7730703695322F8B
:10044000222737952795282B392BC901FA010995C1
:100450000895EF5DFE4F20813181E152F140211579
:100460003105A9F08385F90109950895ED5DFE4FE9
:100470000190F081E02D309751F009950895E15DEC
:10048000FE4F0190F081E02D309709F00995089515
:10049000803869F0803959F0803B49F0803A39F072
:1004A000803D29F0803E19F090E0803C09F491E015
:1004B000892F089587FF0CC0843F51F0853F41F09C
:1004C000893F31F08D3F21F0803F18F4807F0895FF
:1004D00080E00895FC011086178216821582108232
:1004E00008958F708F5F08950F931F93CF93DF93BD
:1004F000EC018E010D5C1E4FD801ED91FC91A081A5
:10050000B18114962D913C911597CF01F901099570
:10051000892B09F418C1D801ED91FC91A081B1811A
:1005200016962D913C911797CF01F9010995182F37
:100530002F8138852115310509F083C08A83888190
:10054000B9DFA6DF882349F017FD07C088818A83B9
:100550001B8381E090E098878F838A81ABDF282F0F
:10056000813F09F442C0823FD8F4803B09F440C087
:10057000813B40F48039E1F1803AD1F1803809F0D3
:10058000A4C036C0803D89F1813D20F4803C09F053
:100590009CC02BC0803E61F1803F09F096C02DC009
:1005A000883F91F0893F40F4833FF9F0833F00F1A9
:1005B000863F09F08AC008C08A3F08F486C08D3F94
:1005C00018F08E3F08F481C08A8174DF8A8719860B
:1005D0001B861C86C45FDE4F81E08883CC50D140EF
:1005E00018861F821E821D82AFC082E090E002C08A
:1005F00083E090E09E838D8306C08FEF90E09E8322
:100600008D8318822D872F8138858D819E8101975A
:100610002817390708F492C08A814CDF8A878A81BB
:1006200060DF89878B818B878D819E81039719F489
:100630008C818C8701C01C8618861F821E821D82B9
:1006400011C087FF2DC08D3F38F48A3F38F4873FB3
:1006500071F0883F29F502C08E3F10F11A871B8682
:100660001C861986C45FDE4F81E088836DC04D858E
:10067000403F59F5FE01E20FF31F8587C90101963E
:1006800098878F834A878B8788858C871986C45F74
:10069000DE4F81E08883CC50D140CE011BDF4CC0BF
:1006A0008A81FE01E20FF31F803F11F4158701C01C
:1006B00012832F8138858D819E81019728173907F4
:1006C00008F43CC08A81803F19F4CE0103DF3BC0AF
:1006D000F1DE8A87DDDE882321F08A8102DF8987C7
:1006E00001C019868B818B878D819E81039719F4B8
:1006F0008C818C8701C01C8618861F821E821D82F9
:10070000C45FDE4F81E08883CC50D1408A85803B36
:1007100079F0813B38F4803959F0803A49F08038DB
:1007200051F406C0803D21F0803E11F0803C19F468
:100730008A81888301C0188281E006C02F5F3F4F05
:1007400038872F83D6CE80E0DF91CF911F910F9114
:100750000895A0E0B0E0EFEAF3E00C94BE0FEC01E6
:100760006B017A01222319F000E010E03BC0FC018C
:10077000ED5CFE4F8081918160EF70E00FDD00E065
:1007800010E010C0A081B181ED91FC911197208102
:100790003181F701E00FF11F6081CD01F901099569
:1007A0000F5F1F4FFE01ED5CFE4F0C151D0550F352
:1007B0008081918167EF70E0F1DC17C0CD5CDE4F86
:1007C000A881B981C353D140ED91FC91119720814B
:1007D0003181F701E00FF11F6081CD01F901099529
:1007E0000F5F1F4F0C151D0548F3CE5CDE4F1882BE
:1007F000CDB7DEB7E8E00C94DA0FFC01948580E019
:10080000238530E0282B392B2F3F310519F010F0CC
:100810002FEF30E0C9010895CF92DF92EF92FF925F
:100820000F931F937C01062FB3E3CB2EB1E0DB2E99
:10083000C80ED91EF601A081B181ED91FC911197EE
:100840000190F081E02DCD0163EF099510E00F7765
:100850001070F60180819181B801A0DC82E391E003
:10086000E80EF91EF70110821F910F91FF90EF9093
:10087000DF90CF900895CF92DF92EF92FF920F9387
:100880001F936C018B0193E3E92E91E0F92EEC0CA0
:10089000FD1CF701A081B181ED91FC9111970190B0
:1008A000F081E02DCD0162EF0995B8016F7770708E
:1008B000F701808191816ADC000F012F001F110B6D
:1008C00011950F771070F70180819181B8015EDC7E
:1008D00082E391E0C80ED91EF60110821F910F919C
:1008E000FF90EF90DF90CF900895842F81508F700C
:1008F000862B0895EF92FF920F931F93CF93DF9370
:10090000EC01162FF42EE22E802F8150803110F44E
:1009100067FD04C0CE5CDE4F18823DC0613EB8F575
:10092000CE01402FE2DF682FFE01EE5CFE4F80819A
:10093000861771F06083CD5CDE4FE881F981C35387
:10094000D140A081B1812D913C91CF01F901099550
:10095000CD5CDE4FE881F981A081B1812D913C9180
:100960008FE7F822CF016F2DF9010995103C99F01E
:10097000103D89F0E881F981A081B1812D913C91F0
:100980008FE7E822CF016E2DF901099504C0663F7B
:1009900010F0CE013FDCCDB7DEB7E6E00C94DC0F03
:1009A000DF92EF92FF920F931F938C01D62E23E3D9
:1009B000E22E21E0F22EE80EF91EF701A081B181AE
:1009C000ED91FC9111970190F081E02DCD0161EF47
:1009D0000995F701A081B181ED91FC9111970190EA
:1009E000F081E02DCD016D2D09950E5C1E4FF801B3
:1009F00010821F910F91FF90EF90DF900895629504
:100A000060774F70642BCCCF0F93CF93DF93EC01C3
:100A1000CF5CDE4F8881C153D14080FF64C0982FE6
:100A2000969509F460C06A85862F8058813600F556
:100A300009858981081719F020E0882309F421E04D
:100A4000892F90E08230910539F08330910541F093
:100A5000019709F048C007C0222309F444C003C02D
:100A6000222309F040C04B852C85CE0143DF3BC0DB
:100A7000663FB9F0673F60F4613F89F1623F18F467
:100A8000603F89F511C0623FE1F0633F61F515C039
:100A90006D3F28F46A3F28F4683F29F502C06E3F95
:100AA00010F1CE01B7DB1FC0CE01A7DEBC01CE0125
:100AB0002D96AE0121E04DDE16C06B85CE01ACDE79
:100AC00012C08B8590E06C8570E07695762F662756
:100AD00077956795682B792BCE01CDDE04C06B85A9
:100AE0004C85CE018CDFDF91CF910F9108951F933C
:100AF000CF93DF93EC01162F613188F4F5DC882366
:100B000071F0CE01AEDBCE01612FB5DB882339F069
:100B1000CE01612F79DFCE01C0DB81E001C080E032
:100B2000DF91CF911F910895FC016181E0CF8FE4A7
:100B300091E0B2D68FE591E0AFD68FE691E062E02A
:100B400070E041E00E942F0E86EA91E064E070E0E0
:100B500041E00E942F0E8DED91E069E04AE059D707
:100B600088EE91E065E046E054C726E061C5FF925B
:100B70000F931F938C01F62E0D5C1E4FF8018081A0
:100B8000918142E15AE760E070E0EFDFF8011292F4
:100B90008F0102531140F801F182108210861782F2
:100BA00016821582045F1E4FF80110820C5011400E
:100BB000F80112861186138614860F5C1E4F83E09F
:100BC000F80180831F910F91FF9008959C01CB0144
:100BD000B9012EED30E0BECA8EEE90ED9093390152
:100BE000809338018091450190914601A091470181
:100BF000B091480180933A0190933B01A0933C014E
:100C0000B0933D018091420180933E0188E391E0E1
:100C100060E070E049E050E0D9DF64E670E080E039
:100C200090E088D38DED91E062E04CED55E021E05D
:100C3000DBD688EE91E062E04CED55E021E0D4C6D1
:100C40008FE691E040D7882309F0C6CF86EA91E08D
:100C50003AD78823B9F08091400190E0882309F4C5
:100C600091E090934001992331F0913059F48DED4A
:100C700091E062E003C08DED91E061E04DE451E070
:100C800021E0B2D686EA91E01ED7909142018823F6
:100C900061F09C3FC1F48AEF8093430188EE91E0BC
:100CA00063E046E950E021E09FC69A3F60F09C3F38
:100CB00018F09C3F41F404C08CEF809343010895E9
:100CC0008BEF8093430108958091410181508230E0
:100CD00080F5CFD2621973098409950920914501E5
:100CE000309146014091470150914801261737073E
:100CF00048075907F0F48EEF91E068EF8BDAB9D22C
:100D00001B012C019A2D9F5FA92E80913F019817FE
:100D100039F4289AAA2460914D0188EE91E007C029
:100D20008695981731F4289888EE91E060E040E0CD
:100D300051D68EEF91E0F8DE882309F4BBC0909184
:100D400008029A3FF1F09B3F20F4983F09F09CC0C5
:100D500042C09B3F69F19C3F09F096C080914101E0
:100D6000833029F49093430181E080934D018CEF0F
:100D70008093440181E080934E018DED91E061E02C
:100D800012C080914101833029F49093430182E0A5
:100D900080934D018AEF8093440182E080934E015D
:100DA0008DED91E063E048EC50E021E01DD66CC091
:100DB00080914101833029F482E080934D0190932A
:100DC00043018BEF8093440182E080934E018DEDCF
:100DD00091E062E0E8CF4DD29B01AC0126193709C2
:100DE0004809590981F08FE591E0B90159D5AA2741
:100DF00097FDA095BA2F8093490190934A01A09343
:100E00004B01B0934C0135D23B014C019B2D9F5FB0
:100E1000B92E80914101823019F08330A9F50FC0BD
:100E200080913F01981729F460914E018DED91E07A
:100E300019C08695981741F58DED91E022C08EEF8F
:100E400091E068EFE7D980913F01B81679F4289ACC
:100E500060914E018DED91E041E0BCD560914D0176
:100E600088EE91E041E0B6D5BB240EC08695B81659
:100E700059F428988DED91E060E040E0ABD588EE24
:100E800091E060E040E0A6D5F4D1661977098809C1
:100E90009909615C774289409040D0F066247724BC
:100EA0004301BB2481E0AED98DED91E060E040E0EC
:100EB00091D50EC0611471048104910449F08091B0
:100EC0004101813029F482E09DD983E080934E0175
:100ED00089D9182F882309F467C08FE691E0F3D5EC
:100EE000882319F46AE070E002C064EF71E0209199
:100EF000F301210F2093F301809141018150823051
:100F000008F052C02C3F41F1243009F04DC010923E
:100F1000F3012091450130914601409147015091E4
:100F20004801203781E1380781E0480780E0580711
:100F3000D8F5CB01A0E0B0E0820F931FA41FB51F2E
:100F40008093450190934601A0934701B0934801D7
:100F50008DED91E061E024C01092F30120914501F4
:100F6000309146014091470150914801293283E276
:100F7000380780E0480780E05807B0F0CB01A0E0D8
:100F8000B0E0281B390B4A0B5B0B209345013093D3
:100F9000460140934701509348018DED91E062E096
:100FA00049E150E021E020D5809142019091430138
:100FB000891711F19B3F79F09C3F19F09A3F91F40A
:100FC00006C08EEF91E06AEF25D981E009C08EEF6F
:100FD00091E06CEF03C08EEF91E06BEF1BD982E0E4
:100FE00080934D01809143018093420160914D01B6
:100FF00088EE91E040E0EED48FE691E083D586EA7A
:1010000091E080D586EA91E028D6882309F018DEA1
:101010008DED91E0BBD488EE91E0B8C4299A5D9A39
:101020008EEE90ED909339018093380188E18093A2
:101030003F0180E29EE4A0E0B0E080933A0190930B
:101040003B01A0933C01B0933D018CEF80933E01A6
:101050001092400188E391E060E070E049E050E0E8
:10106000B5DD64E670E080E090E064D186EA91E06E
:10107000F4D58823B1F78FE691E0EFD5882389F77F
:1010800029985D980895A1E0B0E0E8E4F8E07BC716
:101090008091640084608093640080916400806823
:1010A00080936400259A2D9A8FB7898394D88823DA
:1010B00011F038984098CE01019690D8409A8FB799
:1010C000898389D8882311F039984198CE010196F7
:1010D00085D8419A209A88E391E060E070E049E089
:1010E00050E026ED30E01AD8809138019091390116
:1010F0008E5E904D51F486EA91E0AFD5882331F0B1
:101100008FE691E0AAD5882309F088DF80913E011F
:101110008B3F09F48AEF8093430180913A019091CB
:101120003B01A0913C01B0913D018093450190931A
:101130004601A0934701B0934801662477244301F8
:10114000222433242101AA24BB2481E080934E0170
:1011500059D88EEF91E061E00ADD8EEF91E055D82D
:1011600010E01B5F8AE0612F70E006D186E0612FFE
:1011700070E002D164E070E080E090E0DBD0103CF1
:1011800080F313EC15508AE0612F70E0F5D086E013
:10119000612F70E0F1D064E070E080E090E0CAD0B0
:1011A000163080F78AE060E070E0E6D086E060E02C
:1011B00070E0E2D066E970E080E090E0BBD02D986E
:1011C0002196E3E0FCC61F920F920FB60F921124F6
:1011D0002F933F938F939F93AF93BF938091F90188
:1011E0009091FA01A091FB01B091FC013091FD01B9
:1011F0000196A11DB11D232F2D5F2D3720F02D57F6
:101200000196A11DB11D2093FD018093F9019093DA
:10121000FA01A093FB01B093FC018091F50190913C
:10122000F601A091F701B091F8010196A11DB11D41
:101230008093F5019093F601A093F701B093F80124
:10124000BF91AF919F918F913F912F910F900FBEC2
:101250000F901F9018958FB7F8942091F901309155
:10126000FA014091FB015091FC018FBFB901CA0105
:1012700008959FB7F8942091F5013091F6014091BF
:10128000F7015091F80186B5A89B06C08F3F21F069
:101290002F5F3F4F4F4F5F4F9FBF542F432F322F32
:1012A0002227280F311D411D511D82E0220F331FBF
:1012B000441F551F8A95D1F7B901CA010895789442
:1012C00084B5826084BD84B5816084BD85B582604B
:1012D00085BD85B5816085BDEEE6F0E080818160E9
:1012E0008083E1E8F0E010828081826080838081E9
:1012F00081608083E0E8F0E0808181608083E1EBC1
:10130000F0E0808184608083E0EBF0E080818160A8
:101310008083EAE7F0E0808184608083808182605E
:101320008083808181608083808180688083109247
:10133000C1000895EF92FF920F931F93CF93DF9315
:101340007B018C0196DFEB010EC0D1D492DF6C1BC8
:101350007D0B685E7340C8F30894E108F108010949
:101360001109C851DC4FE114F1040105110569F7B9
:10137000CDB7DEB7E6E020C61F93CF93DF93182FDB
:10138000EB0161E057D0209709F44AC0CF3FD10567
:1013900009F449C0E12FF0E0E255FF4F849183301A
:1013A000C1F0843028F4813051F08230B1F50CC0A6
:1013B000863019F1873049F1843079F514C084B54D
:1013C000806884BDC7BD32C084B5806284BDC8BD9D
:1013D0002DC080918000806880938000D093890028
:1013E000C093880023C08091800080628093800039
:1013F000D0938B00C0938A0019C08091B0008068A0
:101400008093B000C093B30011C08091B00080629F
:101410008093B000C093B40009C0C038D1051CF45B
:10142000812F60E002C0812F61E072D0DF91CF9107
:101430001F910895CF93DF93482F50E0CA0186563D
:101440009F4FFC0134914A575F4FFA0184918823E2
:1014500079F1482F50E0440F551FCA0188599F4F1A
:10146000FC01A591B4914E585F4FFA01C591D491FA
:10147000662351F42FB7F8948C91932F909589237C
:101480008C93888189230BC0623061F42FB7F89464
:101490008C91932F909589238C938881832B8883BB
:1014A0002FBF06C09FB7F8948C91832B8C939FBF5E
:1014B000DF91CF910895833071F0843028F481302A
:1014C000A1F0823021F514C08630B1F08730D1F020
:1014D0008430E9F404C0809180008F7703C080914C
:1014E00080008F7D80938000089584B58F7702C03F
:1014F00084B58F7D84BD08958091B0008F778093EF
:10150000B00008958091B0008F7D8093B000089561
:10151000FF920F931F93F62E482F50E0CA01825579
:101520009F4FFC012491CA0186569F4FFC011491E4
:101530004A575F4FFA0104910023C1F0222311F0B2
:10154000822FB9DFE02FF0E0EE0FFF1FEE58FF4FC4
:10155000A591B4919FB7F894FF2021F48C91109538
:10156000812302C08C91812B8C939FBF1F910F917F
:10157000FF9008950F931F93482F50E0CA018255A2
:101580009F4FFC012491CA0186569F4FFC01049194
:101590004A575F4FFA011491112319F420E030E00B
:1015A00013C0222311F0822F86DFE12FF0E0EE0F2F
:1015B000FF1FE458FF4FA591B4918C91802320E048
:1015C00030E011F021E030E0C9011F910F91089542
:1015D000DC015C968C915C97FD01E80FF11DE35AEC
:1015E000FF4F20815C968C915C9790E001968F7301
:1015F00090705C968C935C975696ED91FC91579702
:1016000020835096ED91FC91519780818064808376
:101610005B969C915B975C968C915C97981739F4DC
:101620005296ED91FC91539780818F7D8083089530
:10163000A0E0B0E0EDE1FBE0A2C4EC017A018B0197
:10164000D22EE889F98982E08083403021EE52076A
:1016500020E0620720E07207A1F060E079E08DE30E
:1016600090E0A80197015ED4C901DA010197A109B0
:10167000B109B695A7959795879520E18030920797
:1016800098F0E889F989108260E874E88EE190E0CA
:10169000A801970147D4C901DA010197A109B1094D
:1016A000B695A79597958795EC85FD859083EE85F2
:1016B000FF858083188EEC89FD89D082EA89FB89B9
:1016C000808180618083EA89FB8980818860808352
:1016D000EA89FB89808180688083EA89FB8980812F
:1016E0008F7D8083CDB7DEB7E7E065C4FC01218D37
:1016F00030E0828D205C3F4F281B31092F73307002
:10170000C9010895FC01918D828D981719F42FEF6E
:101710003FEF06C0828DE80FF11D858D282F30E048
:10172000C9010895DC0159969C9159975A968C915C
:101730005A97981719F42FEF3FEF10C05A968C91D3
:101740005A97FD01E80FF11D958D5A968C915A9785
:101750008F5F8F735A968C93292F30E0C9010895BB
:10176000CF93DF93EC01888D882359F418C08C91B6
:1017700085FF07C0E889F989808185FF02C0CE0115
:1017800027DFAA89BB898C9185FD05C0E889F98985
:10179000808186FD04C00FB607FEE9CFF2CFDF914E
:1017A000CF9108950F931F93CF93DF93EC01062FF2
:1017B0009B8D8C8D981789F5E889F989808185FF43
:1017C0002CC0EE89FF896083E889F9898081806473
:1017D00080831CC00FB607FC07C0E889F9898081A7
:1017E00085FF02C0CE01F4DE8C8D181799F38B8D26
:1017F000FE01E80FF11DE35AFF4F00831B8FEA89BA
:10180000FB8980818062808381E0888F81E090E025
:10181000DF91CF911F910F9108951B8D1F5F1F7353
:10182000E3CF81E39FE0892B49F080E090E0892BB2
:1018300029F017D3882311F00E9400000895A0E03A
:10184000B0E0E4E2FCE09AC38C017B01C0E0D0E0B0
:101850000EC0D801ED91FC910190F081E02DD701EF
:101860006D917D01C8010995C80FD91FA6016A01B4
:101870000894C108D108452B61F7CE01CDB7DEB77A
:10188000E8E098C31CDDFFDB1FDA81E19CE0892BD7
:10189000D9F3C7DFF9CF089521E0FC012687089529
:1018A000CF93DF93DC011E968C911E97882301F164
:1018B0001E961C921E971F961C921F97CB01880F95
:1018C000991F860F971F880F991F1C968C931C9742
:1018D0001D969C931D9780E0E82FF0E0EE0FFF1F10
:1018E000EA0FFB1F718360838F5F8630A8F321C0EE
:1018F0001C964D915C911D971F968C911F97E82F18
:10190000F0E0EE0FFF1FEA0FFB1F20813181EB019A
:10191000C21BD30B9E01240F351F1D963C932E93A3
:101920001C97718360838F5F66E0C9D21F969C937A
:101930001F971C968D919C911D97039666E070E011
:10194000DED2CB01DF91CF910895CF93DF93EC01ED
:1019500089818617C1F06983623039F0633041F0C4
:101960008B81613059F461E00AC08B8160E002C074
:101970008B8161E0CDDD8C8161E004C060E0C8DD79
:101980008C8160E0C5DDDF91CF910895CF93DF9327
:10199000EC018A818823C1F05EDC2F81388549857E
:1019A0005A85621B730B840B950B2D813E8140E0A1
:1019B00050E0621773078407950720F01A821E8291
:1019C0001D8202C06A8101C06881CE01BEDFDF9145
:1019D000CF910895FC018081861729F0608344230C
:1019E00011F0CF01D3CF08951F93CF93DF93EC0174
:1019F000122F6A835E834D832EDC6F8378878987FD
:101A00009A87112311F0CE01C1DFDF91CF911F9191
:101A100008950F931F938C01862FF80163834483ED
:101A200061E008DDF801848161E004DD1F910F9120
:101A30000895FC01ED5CFE4F71836083B6971192AF
:101A4000119211921192119211921192119211927E
:101A5000119211921192119211921192119211926E
:101A6000119211921192119211921192119211925E
:101A7000119211921192119211921192119211924E
:101A8000119211821082089508958130910541F4D8
:101A90006F5F7F4F69F48EEF91E063E373E0C9CF2E
:101AA000892B31F46F5F7F4F19F48EEF91E0ECCF0B
:101AB000089581E090E06FEF7FEFE7CF80E090E066
:101AC0006FEF7FEFE2CFFC018489882311F460E09F
:101AD00017C023A934A945A956A987A190A5A1A5F6
:101AE000B2A5281B390B4A0B5B0B878D90A1A0E098
:101AF000B0E060E082179307A407B50708F461E03F
:101B0000862F0895CF93DF93EC01A5DB6BAB7CAB05
:101B10008DAB9EAB8F81882341F488812BDD20E043
:101B2000892B09F021E02A870EC0EC81FD8180819C
:101B30008E8390E00A8002C0959587950A94E2F71B
:101B4000817090708A879A8589852BA93CA94DA9B7
:101B50005EA9981731F01B862E873F87488B598BDB
:101B600013C08E859F85A889B989281B390B4A0B1C
:101B70005B0B8A899B89A0E0B0E082179307A407DA
:101B8000B50710F481E08B878B85882321F08D8544
:101B90008C878A858D879D858885981729F481E0B3
:101BA0008C8B1D8A188E04C01C8A81E08D8B1F8A45
:101BB0009C858D85981719F081E08E8B03C01E8A55
:101BC0001F8A188E8E898823B9F18C898823C1F0E9
:101BD00081E08F8B898D9A8D01969A8F898F8FA145
:101BE00098A5A9A5BAA58BA39CA3ADA3BEA38BA9B9
:101BF0009CA9ADA9BEA98FA398A7A9A7BAA71DC0E4
:101C00008D898823D9F01F8A81E0888F8B8D9C8DE8
:101C100001969C8F8B8F8FA598A9A9A9BAA98BA78C
:101C20009CA7ADA7BEA78BA99CA9ADA9BEA98FA74C
:101C300098ABA9ABBAAB02C01F8A188E8A85898778
:101C4000DF91CF910895CF93DF93EC01662309F0E4
:101C500059DF8C89DF91CF91089560E0F4CFFF9236
:101C60000F931F938C01862FF42EF80160837183EC
:101C700060E0E0DBF80117828081918193838283A9
:101C8000F08616821186128621E023871486158637
:101C900016861786108A118A8EE190E0938B828BCC
:101CA000148A258B168A178A108E128E118E148E26
:101CB000138E80E991E0968F858F8CED95E090A34F
:101CC000878F11A222A313A214A215A216A217A2F3
:101CD00010A611A612A613A614A615A616A617A638
:101CE00010AA11AA12AA1F910F91FF9008950895AA
:101CF000FC0184E291E09183808313821282089533
:101D00000F931F938C01F4DF8CE291E0F801918333
:101D1000808388EE93E0A0E0B0E084839583A6837F
:101D2000B7831F910F9108954F925F926F927F92A8
:101D30008F929F92AF92BF92CF92DF92EF92FF92DB
:101D40000F931F935C014B013A012901D9DF84E114
:101D500091E0F501918380839586848677866686F7
:101D6000518A408A138B028BF58AE48AD78AC68A05
:101D7000118E128E138E148E1F910F91FF90EF9083
:101D8000DF90CF90BF90AF909F908F907F906F909B
:101D90005F904F900895DC015096ED91FC91519722
:101DA00080815696ED91FC91579782FD15C0208158
:101DB00059969C9159979F5F9F735A968C915A9709
:101DC000981759F059968C915997FD01E80FF11D1C
:101DD000258F59969C930895808108951F920F92A4
:101DE0000FB60F9211242F933F934F935F936F93EE
:101DF0007F938F939F93AF93BF93EF93FF9383E36F
:101E000093E0C9DFFF91EF91BF91AF919F918F91C7
:101E10007F916F915F914F913F912F910F900FBEE6
:101E20000F901F901895CF92DF92EF92FF920F9331
:101E30001F9383E393E065EC70E044EC50E020EC0A
:101E400030E001EC10E0F2ECEF2EF12CE6ECCE2EBF
:101E5000D12C6ADF1F910F91FF90EF90DF90CF9010
:101E6000089583E393E042DC20E0892B09F021E030
:101E7000822F08951F920F920FB60F9211242F9365
:101E80003F934F935F936F937F938F939F93AF9302
:101E9000BF93EF93FF9383E393E09ADBFF91EF917E
:101EA000BF91AF919F918F917F916F915F914F9172
:101EB0003F912F910F900FBE0F901F901895991B77
:101EC00079E004C0991F961708F0961B881F7A9531
:101ED000C9F780950895AA1BBB1B51E107C0AA1F33
:101EE000BB1FA617B70710F0A61BB70B881F991FBB
:101EF0005A95A9F780959095BC01CD01089597FB5F
:101F0000092E07260AD077FD04D0E5DF06D0002091
:101F10001AF4709561957F4F0895F6F79095819525
:101F20009F4F0895A1E21A2EAA1BBB1BFD010DC0F5
:101F3000AA1FBB1FEE1FFF1FA217B307E407F50779
:101F400020F0A21BB30BE40BF50B661F771F881F55
:101F5000991F1A9469F760957095809590959B01EB
:101F6000AC01BD01CF0108952F923F924F925F9235
:101F70006F927F928F929F92AF92BF92CF92DF9299
:101F8000EF92FF920F931F93CF93DF93CDB7DEB7FE
:101F9000CA1BDB0B0FB6F894DEBF0FBECDBF099492
:101FA0002A88398848885F846E847D848C849B84E9
:101FB000AA84B984C884DF80EE80FD800C811B81F7
:101FC000AA81B981CE0FD11D0FB6F894DEBF0FBE26
:101FD000CDBFED010895EE0FFF1F0590F491E02DA8
:101FE000099410E0C8ECD0E003C0FE01F6DF2296B1
:0A1FF000CA3CD107D1F7F894FFCFE7
:101FFA0000FF0100010000FFFF0000010001FF00D7
:10200A0000000000D20B1F0C760B920B820BB00B58
:10201A00000000004B0C1F0C000000004B0C1F0CB2
:08202A004B0C4B0C4B0C4B0C52
:00000001FF
