:1000000062C0000088C0000086C0000084C00000FC
:1000100082C0000080C000007EC000007CC00000E4
:100020007AC0000078C0000076C0000074C00000F4
:1000300072C0000070C000006EC000006CC0000004
:1000400003C5000068C0000041C700006DC7000084
:1000500062C0000060C000005EC000005CC0000024
:100060005AC0000058C00000000000002400270013
:100070002A0000000000250028002B0000000000DE
:1000800023002600290004040404040404040202DA
:100090000202020203030303030301020408102007
:1000A0004080010204081020010204081020000012
:1000B0000007000201000003040600000000000029
:1000C0000000A700320911241FBECFEFD8E0DEBF29
:1000D000CDBF11E0A0E0B1E0ECE8F8E102C005908E
:1000E0000D92A833B107D9F712E0A8E3B1E001C03F
:1000F0001D92AA3AB107E1F710E0C6ECD0E004C0C7
:100100002297FE010E94400CC23CD107C9F70E9411
:1001100099090C94440C74CFDC01ED91FC91019091
:10012000F081E02D099508958091F501880F880FE1
:10013000E6B1E370E82BE093F501F0E0EF70F070CA
:10014000E050FF4F808108958093410108950F93FF
:100150001F938FE491E00E94B70985E791E00E9428
:10016000B7098BE991E064E040E021E002E310E0B0
:100170000E946A0B86EB91E062E040E021E00E9481
:100180006A0B81ED91E069E04AE00E94920A8CEDF1
:1001900091E065E046E00E94920A1F910F91089558
:1001A000EF92FF920F931F93CF93DF93AC017B01EC
:1001B000C0E0D0E08A010F5F1F4F89EA92E0BA01E8
:1001C0000E94A409F70181937F012196A801C930FB
:1001D000D10580F389E090E0CDB7DEB7E6E00C947E
:1001E0001B0CEF92FF920F931F9387E892E0B9D711
:1001F000182F082F007F87E892E0B3D7E82E809170
:100200004001882341F087E892E0612FE3D787E837
:1002100092E06E2DDFD7003C71F0003D61F087E881
:1002200092E09FD7F82E80914001882321F087E843
:1002300092E06F2DCFD71F70B801C7011F910F91AA
:10024000FF90EF9008950BC087E892E08AD7BC0139
:1002500087E892E061DF03C087E892E082D787E811
:1002600092E047D71816190654F487E892E059D758
:1002700087FD05C080914001882331F7EDCF87E8E5
:1002800092E04FD787E892E034D762E070E00E94B6
:10029000BE0B862F08952ED49B01AC018201710103
:1002A000809141018150823008F0EBC0809145017E
:1002B00090914601A0914701B0914801221933095C
:1002C00044095509281739074A075B0708F4D9C0BC
:1002D00087E892E068EF70E01FDF0CD41B012C016F
:1002E0009A2D9F5FA92E80913F01981751F4289A6B
:1002F000AA2460914D018CED91E040E00E94730AC8
:10030000C0C08695981709F0BCC0289868C069DFFE
:10031000162F6A3F09F481C06B3F20F4683F09F053
:10032000B0C007C06B3F09F490C06C3F09F0A9C092
:100330005CC0E0D3AB01BC014619570968097909D3
:1003400061F085E791E00E94BB09609349017093D9
:100350004A0180934B0190934C01CCD33B014C015B
:100360009B2D9F5FB92E80914101823021F0833017
:1003700009F087C010C080913F01981729F460915F
:100380004E0181ED91E01CC08695981709F079C067
:1003900081ED91E026C087E892E068EF70E0BCDE76
:1003A00080913F01B81689F4289A60914E0181ED41
:1003B00091E041E00E94730A60914D018CED91E063
:1003C00041E00E94730ABB245CC08695B81609F010
:1003D00058C0289881ED91E061E00E946D0A8CED93
:1003E00091E061E00E946D0A4CC080914101833030
:1003F00051F487E892E06CEF70E08EDE10934301D9
:1004000081E080934D018CEF8093440181E08093E3
:100410004E0181ED91E061E02FC080914101833078
:1004200051F487E892E06AEF70E076DE10934301C2
:1004300082E080934D018AEF8093440182E08093B3
:100440004E0181ED91E063E017C08091410183305E
:1004500051F487E892E06BEF70E05EDE82E080931B
:100460004D01109343018BEF8093440182E0809310
:100470004E0181ED91E062E048EC50E021E00E9405
:100480007D0AE1DE882309F042CF34D3661977096B
:1004900088099909605C77428940904060F0662441
:1004A00077244301BB2481E04FDE81ED91E060E0E1
:1004B0000E946D0A0EC0611471048104910449F018
:1004C00080914101813029F482E03EDE83E0809317
:1004D0004E0186EB91E00E94C10A8BE991E00E94F7
:1004E000C10A22DE182F882309F469C086EB91E047
:1004F0000E94A90A8536910518F46AE070E002C0EE
:1005000064EF71E02091E701210F2093E7018091D2
:1005100041018150823008F052C02C3F41F124301B
:1005200009F04DC01092E70120914501309146013C
:100530004091470150914801203781E1380781E01F
:10054000480780E05807D8F5CB01A0E0B0E0820F63
:10055000931FA41FB51F8093450190934601A0935C
:100560004701B093480181ED91E061E024C0109211
:10057000E70120914501309146014091470150919A
:1005800048012932E3E23E07E0E04E07E0E05E0783
:10059000B0F0CB01A0E0B0E0281B390B4A0B5B0B9D
:1005A0002093450130934601409347015093480101
:1005B00081ED91E062E049E150E021E09ED7809139
:1005C000420190914301891729F19B3F89F09C3F9B
:1005D00019F09A3FA9F407C087E892E06CEF70E049
:1005E0009BDD81E00BC087E892E06AEF70E004C019
:1005F00087E892E06BEF70E08FDD82E080934D0141
:10060000809143018093420160914D018CED91E016
:1006100040E069D781ED91E03CD78CED91E039C79E
:10062000EF92FF920F931F9394D7845F914008F04D
:100630009EC010914101123009F487C0133009F4B3
:1006400090C0113009F093C055D22091E80130914B
:10065000E9014091EA015091EB01621773078407A9
:10066000950730F08FE491E0EFD61093F40140C08D
:100670008091F4018F5F8093F4013CD2AB01BC0107
:100680008091F0019091F101A091F201B091F301FC
:10069000481B590B6A0B7B0B4093EC015093ED0107
:1006A0006093EE017093EF018FE491E064D67B01DB
:1006B0008C018091F4018430D8F020913F0130E02A
:1006C00040E050E0C801B7010E94D10B20934501E2
:1006D00030934601409347015093480181ED91E0EA
:1006E00063E04BE450E021E008D78CED91E002C0DC
:1006F00081ED91E063E04BE450E021E0FED6FAD1D9
:100700006093F0017093F1018093F2019093F301F3
:10071000F1D17B018C0160913F0170E080E090E0BD
:1007200020EA36E841E050E00E949F0B9B01AC01BB
:100730002E0D3F1D401F511F2093E8013093E9010A
:100740004093EA015093EB0112C083E0FDDCAB2C37
:1007500080914401882311F0809343018CED91E056
:1007600004C081E0F1DC81ED91E060E0B6D61F913C
:100770000F91FF90EF900895EF92FF920F931F93C8
:10078000CF93DF93FC017B01C0E0D0E08F010F5FCE
:100790001F4FD7014D917D0189EA92E0BF01DBD562
:1007A0002196F801C930D10588F389E090E0CDB7F2
:1007B000DEB7E6E00C941B0C8DE39DE090933901CD
:1007C000809338018091450190914601A0914701A5
:1007D000B091480180933A0190933B01A0933C0172
:1007E000B0933D018091420180933E0180E090E012
:1007F00068E371E0C1DF64E670E080E090E0A0D1E2
:1008000081ED91E062E04CED55E021E076D68CED93
:1008100091E062E04CED55E021E06FC6CF93DF93AD
:10082000EC0186EB91E095D68D5D954010F0C4DF2C
:100830003BC0CE018ED68C5D9540B0F080914001DA
:1008400090E0882309F491E090934001992331F0DE
:10085000913051F581ED91E062E003C081ED91E0CE
:1008600061E04DE451E011C0CE0173D62091420108
:10087000845F914068F02C3FB9F48AEF8093430184
:100880008CED91E063E046E950E021E036D60CC003
:100890002A3F50F02C3F18F02C3F31F402C08CEF6F
:1008A00001C08BEF80934301DF91CF910895299A86
:1008B0005D9A8DE39DE0909339018093380188E142
:1008C00080933F0180E29EE4A0E0B0E080933A0193
:1008D00090933B01A0933C01B0933D018CEF80933A
:1008E0003E0181E08093400180E090E068E371E0A8
:1008F00043DF64E670E080E090E022D18BE991E094
:1009000061E0D4D68823A9F786EB91E061E0CED6EA
:10091000882379F729985D98089580916400846010
:1009200080936400809164008068809364008DE00F
:1009300061E0C0D12D9A8EE060E0BCD1409A8FE09A
:1009400060E0B8D1419A88E061E0B4D180E090E005
:1009500068E371E025DC80913801909139018D5375
:100960009D4061F48BE991E061E0A0D6882339F0E5
:1009700086EB91E061E09AD6882309F098DF8091B8
:100980003E018B3F09F48AEF8093430180913A0145
:1009900090913B01A0913C01B0913D0180934501B4
:1009A00090934601A0934701B093480166247724B1
:1009B0004301222433242101AA24BB2481E0809313
:1009C0004E01C2DB87E892E042E15AE760E070E066
:1009D00015D310E01B5F8AE0612F70E00DD186E037
:1009E000612F70E009D164E070E080E090E0A8D071
:1009F000103C80F313EC15508AE0612F70E0FCD0BE
:100A000086E0612F70E0F8D064E070E080E090E074
:100A100097D0163080F78AE060E070E0EDD086E095
:100A200060E070E0E9D066E970E080E090E088D0B6
:100A300086EB91E060E173E088D58BE991E06EE0B0
:100A400074E083D52D9808951F920F920FB60F92E0
:100A500011242F933F938F939F93AF93BF938091D4
:100A6000FA019091FB01A091FC01B091FD01309140
:100A7000FE010196A11DB11D232F2D5F2D3720F002
:100A80002D570196A11DB11D2093FE018093FA01FF
:100A90009093FB01A093FC01B093FD018091F601BE
:100AA0009091F701A091F801B091F9010196A11D73
:100AB000B11D8093F6019093F701A093F801B093D4
:100AC000F901BF91AF919F918F913F912F910F901D
:100AD0000FBE0F901F9018958FB7F8942091FA01D0
:100AE0003091FB014091FC015091FD018FBFB90194
:100AF000CA0108959FB7F8942091F6013091F7014B
:100B00004091F8015091F90186B5A89B06C08F3F2E
:100B100021F02F5F3F4F4F4F5F4F9FBF542F432F09
:100B2000322F2227280F311D411D511D82E0220F37
:100B3000331F441F551F8A95D1F7B901CA01089583
:100B4000EF92FF920F931F93CF93DF937B018C0162
:100B5000D1DFEB010DC0CEDF6C1B7D0B685E7340F7
:100B6000D0F30894E108F10801091109C851DC4FDC
:100B7000E114F1040105110571F7CDB7DEB7E6E028
:100B80005AC6789484B5826084BD84B5816084BD82
:100B900085B5826085BD85B5816085BDEEE6F0E0F6
:100BA000808181608083E1E8F0E010828081826052
:100BB0008083808181608083E0E8F0E080818160D3
:100BC0008083E1EBF0E0808184608083E0EBF0E003
:100BD000808181608083EAE7F0E0808184608083A7
:100BE0008081826080838081816080838081806851
:100BF00080831092C10008951F93CF93DF93182F25
:100C0000EB0161E057D0209709F44AC0CF3FD105EE
:100C100009F449C0E12FF0E0E255FF4F84918330A1
:100C2000C1F0843028F4813051F08230B1F50CC02D
:100C3000863019F1873049F1843079F514C084B5D4
:100C4000806884BDC7BD32C084B5806284BDC8BD24
:100C50002DC080918000806880938000D0938900AF
:100C6000C093880023C080918000806280938000C0
:100C7000D0938B00C0938A0019C08091B000806827
:100C80008093B000C093B30011C08091B000806227
:100C90008093B000C093B40009C0C038D1051CF4E3
:100CA000812F60E002C0812F61E072D0DF91CF918F
:100CB0001F910895CF93DF93482F50E0CA018656C5
:100CC0009F4FFC0134914A575F4FFA01849188236A
:100CD00079F1482F50E0440F551FCA0188599F4FA2
:100CE000FC01A591B4914E585F4FFA01C591D49182
:100CF000662351F42FB7F8948C91932F9095892304
:100D00008C93888189230BC0623061F42FB7F894EB
:100D10008C91932F909589238C938881832B888342
:100D20002FBF06C09FB7F8948C91832B8C939FBFE5
:100D3000DF91CF910895833071F0843028F48130B1
:100D4000A1F0823021F514C08630B1F08730D1F0A7
:100D50008430E9F404C0809180008F7703C08091D3
:100D600080008F7D80938000089584B58F7702C0C6
:100D700084B58F7D84BD08958091B0008F77809376
:100D8000B00008958091B0008F7D8093B0000895E9
:100D9000FF920F931F93F62E482F50E0CA01825501
:100DA0009F4FFC012491CA0186569F4FFC0114916C
:100DB0004A575F4FFA0104910023C1F0222311F03A
:100DC000822FB9DFE02FF0E0EE0FFF1FEE58FF4F4C
:100DD000A591B4919FB7F894FF2021F48C911095C0
:100DE000812302C08C91812B8C939FBF1F910F9107
:100DF000FF9008950F931F93482F50E0CA0182552A
:100E00009F4FFC012491CA0186569F4FFC0104911B
:100E10004A575F4FFA011491112319F420E030E092
:100E200013C0222311F0822F86DFE12FF0E0EE0FB6
:100E3000FF1FE458FF4FA591B4918C91802320E0CF
:100E400030E011F021E030E0C9011F910F910895C9
:100E5000FC0184E391E091838083138212820895E0
:100E60000F931F938C01F4DF84E291E0F8019183EA
:100E7000808388EE93E0A0E0B0E084839583A6832E
:100E8000B7831F910F910895CF93DF93482FDB0114
:100E9000EB01C05CDF4F288139812F5F3F4F2F73FB
:100EA0003070AE5BBF4F8D919C911197A254B040B2
:100EB0002817390739F0E881F981EA0FFB1F4083D1
:100EC00039832883DF91CF91089508951F920F925F
:100ED0000FB60F9211242F933F934F935F936F930D
:100EE0007F938F939F93AF93BF93EF93FF938091E3
:100EF000C00082FD06C08091C6006FEF71E0C4DFC4
:100F000002C08091C600FF91EF91BF91AF919F9178
:100F10008F917F916F915F914F913F912F910F90A2
:100F20000FBE0F901F9018951F920F920FB60F9241
:100F300011242F933F938F939F93EF93FF932091CF
:100F40008302309184028091850290918602281755
:100F5000390731F48091C1008F7D8093C10014C0A6
:100F6000E0918502F0918602ED5BFD4F208180913A
:100F700085029091860201968F73907090938602FD
:100F8000809385022093C600FF91EF919F918F91EE
:100F90003F912F910F900FBE0F901F901895A2E0D8
:100FA000B0E0E4EDF7E01FC43C012B011A013A83E5
:100FB000298356DF84E191E0F30191838083558694
:100FC00044863786268689819A81918B808B138B04
:100FD000028BF58AE48AD78AC68AB18EA08E938E58
:100FE000828E8F89848F888D858F898D868F8A8D5B
:100FF000878F8B8D80A32296E2E111C4A0E0B0E040
:10100000E3E0F8E0FBC3EC017A018B01DD24403022
:1010100021EE520720E0620720E0720711F0DD2484
:10102000D394EC89FD89DD2071F081E090E008A087
:1010300002C0880F991F0A94E2F7808360E079E08C
:101040008DE390E005C0108260E874E88EE190E0E6
:10105000A8019701A6D3C901DA010197A109B10935
:10106000B695A7959795879520E18030920720F057
:10107000DD2011F0DD24D5CFE889F9899083EA8954
:10108000FB89808319A2EE89FF89408121E030E04D
:10109000C9010C8C02C0880F991F0A94E2F7482BF3
:1010A0004083EE89FF894081C9010D8C02C0880F01
:1010B000991F0A94E2F7482B4083EE89FF8940810B
:1010C000C9010E8C02C0880F991F0A94E2F7482BC1
:1010D0004083EE89FF8980810F8C02C0220F331F6D
:1010E0000A94E2F7209528232083CDB7DEB7E7E006
:1010F000A1C3DC011C96ED91FC911D97E05CFF4FB4
:101100002191319180819181281B390B2F7330708F
:10111000C901089587E892E0ECDF892B09F0D5CE6C
:101120000895DC011C96ED91FC911D97E05CFF4F4A
:1011300020813181E054F040DF01AE5BBF4F8D91E3
:101140009C9111972817390719F42FEF3FEF07C02B
:101150008D919C91E80FF91F8081282F30E0C90103
:101160000895DC011C96ED91FC911D97E05CFF4F0A
:1011700020813181E054F040DF01AE5BBF4F8D91A3
:101180009C9111972817390719F42FEF3FEF10C0E2
:101190008D919C911197E80FF91F20818D919C9161
:1011A000119701968F73907011969C938E9330E0F7
:1011B000C9010895DC0191968C919197882339F0AB
:1011C0005496ED91FC915597808186FFF4CF9196CE
:1011D0001C920895DC011E96ED91FC911F97E05C36
:1011E000FF4F20813181E054F0402F5F3F4F2F733C
:1011F0003070EE5BFF4F80819181E254F040281700
:101200003907B9F3E05CFF4F80819181E054F040F1
:10121000E80FF91F60831E96ED91FC911F97E05C2B
:10122000FF4F318320835696ED91FC915797208193
:1012300081E090E05F960C905F9702C0880F991F45
:101240000A94E2F7282B208381E091968C93919762
:101250005496ED91FC91559780818064808381E064
:1012600090E008958F929F92AF92BF92CF92DF92BB
:10127000EF92FF920F931F9300D000D00F92EDB723
:10128000FEB7319684E0ADB7BEB711968C9383E07C
:10129000818387E0828385E0838381E0848387E89C
:1012A00092E06FEF71E043E452E025EC30E004ECB3
:1012B00010E0B0ECEB2EF12CA1ECCA2ED12CF2EC0C
:1012C000AF2EB12CE6EC8E2E912C69DE0F900F9094
:1012D0000F900F900F901F910F91FF90EF90DF9064
:1012E000CF90BF90AF909F908F900895A0E0B0E016
:1012F000EBE7F9E082C28C017B01C0E0D0E00EC0D8
:10130000D801ED91FC910190F081E02DD7016D9114
:101310007D01C8010995C80FD91FA6016A0108946B
:10132000C108D108452B61F7CE01CDB7DEB7E8E0A3
:1013300080C227DCF2DA0E944B018AE898E0892B10
:10134000D1F3E8DEF8CF0895F999FECF72BD61BD03
:10135000F89A80B50895F999FECF1FBA72BD61BDA4
:1013600040BD0FB6F894FA9AF99A0FBE0895FC01A1
:1013700081E080830895A0E0B0E0E0ECF9E03BC2BA
:10138000EC017A018B018881882301F1188219828E
:10139000DB01CA0133E0880F991FAA1FBB1F3A95D2
:1013A000D1F78AA39BA3ACA3BDA380E0E82FF0E014
:1013B000EE0FFF1FEE0FFF1FEC0FFD1FE282F38207
:1013C000048315838F5F883088F329C04AA15BA10D
:1013D0006CA17DA12981E22FF0E0EE0FFF1FEE0F3F
:1013E000FF1F3296EC0FFD1F80819181A281B38196
:1013F00057016801A81AB90ACA0ADB0AD601C50151
:10140000840F951FA61FB71F8AA39BA3ACA3BDA3E0
:10141000E082F182028313832F5F277029832AA140
:101420003BA14CA15DA12C5F3F4F4F4F5F4F83E02D
:1014300056954795379527958A95D1F7B901CA01F1
:10144000CDB7DEB7EAE0F3C1FC0181E08083089507
:10145000CF93DF93EC0189818617C1F069836230F5
:1014600039F0633041F08B81613059F461E00AC09A
:101470008B8160E002C08B8161E08ADC8C8161E05D
:1014800004C060E085DC8C8160E082DCDF91CF917C
:101490000895CF93DF93EC018A818823C1F01CDB90
:1014A0002F81388549855A85621B730B840B950BF8
:1014B0002D813E8140E050E0621773078407950755
:1014C00020F01A821E821D8202C06A8101C06881DA
:1014D000CE01BEDFDF91CF910895FC01108266231B
:1014E00009F0D7CF0895FC018081861729F0608329
:1014F000442311F0CF01CDCF08951F93CF93DF93F5
:10150000EC01122F6A835E834D83E6DA6F8378875E
:1015100089879A87112311F0CE01BBDFDF91CF912C
:101520001F9108950F931F938C01862FF8016383F9
:10153000448361E0BFDBF801848161E0BBDB1F9184
:101540000F910895FC0111820895FC01758B648B45
:101550000895CF93DF93EC018C819D81AE81BF8193
:101560008F5F9F4FAF4FBF4F19F460E070E005C031
:10157000B3DA8C819D81681B790BCB01DF91CF9110
:101580000895EF92FF920F931F93CF93DF93EC0197
:101590008A8180FF02C0826001C08D7F8A8388813A
:1015A00029DC298130E04A818217930711F44E7FAC
:1015B00001C041604A834A81242F30E0C9019595DA
:1015C00087958227932780FF45C086DA7B018C01AF
:1015D0002A853B854C855D858B81882349F08E85E6
:1015E0009F85B701621B730B6817790708F45AC00F
:1015F00073DA6A877B878C879D878A8180FF12C018
:10160000888D998D0196998F888FE889F98930970F
:1016100011F0CE01099560DA6C837D838E839F8300
:101620001A8E14C0EA89FB89309711F0CE01099512
:10163000EC89FD89309711F0CE0109958FEF9FEF6E
:10164000AFEFBFEF8C839D83AE83BF838A818460BD
:101650008A8328C04B7F4A838C819D81AE81BF8164
:101660008F5F9F4FAF4FBF4FE9F08A8D8823D1F432
:1016700033DA2C813D814E815F81621B730B840BB9
:10168000950B2885398540E050E026173707480735
:10169000590740F4EE89FF89309721F0CE01099572
:1016A00081E08A8FCDB7DEB7E6E0C5C0CF93DF9388
:1016B000EC01662309F065DF8A818170DF91CF91AB
:1016C0000895FC0181E08183623019F4808161E03A
:1016D0005FCB0895EF92FF920F931F93CF93DF9309
:1016E000EC01862FE42EF22E688360E0E3DAFB82C1
:1016F0001F870E87F1D96A877B878C879D87EE20AD
:1017000019F4CE011FDF03C0CE016E2DDADF1A827D
:101710008981882319F481E08A8301C01A82198A99
:10172000188A1B8A1A8A1D8A1C8A1F8A1E8A198E89
:10173000188E81E08A8FCDB7DEB7E6E07CC0629F6D
:10174000D001739FF001829FE00DF11D649FE00DB9
:10175000F11D929FF00D839FF00D749FF00D659F1A
:10176000F00D9927729FB00DE11DF91F639FB00D19
:10177000E11DF91FBD01CF011124089597FB092E2A
:1017800007260AD077FD04D065D006D000201AF4D1
:10179000709561957F4F0895F6F7909581959F4FCD
:1017A0000895A1E21A2EAA1BBB1BFD010DC0AA1FA2
:1017B000BB1FEE1FFF1FA217B307E407F50720F0BA
:1017C000A21BB30BE40BF50B661F771F881F991F35
:1017D0001A9469F760957095809590959B01AC017E
:1017E000BD01CF0108952F923F924F925F926F9269
:1017F0007F928F929F92AF92BF92CF92DF92EF92A1
:10180000FF920F931F93CF93DF93CDB7DEB7CA1B21
:10181000DB0B0FB6F894DEBF0FBECDBF09942A884C
:10182000398848885F846E847D848C849B84AA84F4
:10183000B984C884DF80EE80FD800C811B81AA8181
:10184000B981CE0FD11D0FB6F894DEBF0FBECDBF4C
:10185000ED010895AA1BBB1B51E107C0AA1FBB1FC6
:10186000A617B70710F0A61BB70B881F991F5A952C
:10187000A9F780959095BC01CD010895EE0FFF1F4B
:0C1880000590F491E02D0994F894FFCF3E
:10188C0000FF0100010000FFFF0000010001FF004C
:10189C0000000000EA0876097908B1089108DA0816
:1018AC0000000000A3097609A309A309A309A30951
:0818BC0000000000A3097609F9
:00000001FF
