:1000000062C0000088C0000086C0000084C00000FC
:1000100082C0000080C000007EC000007CC00000E4
:100020007AC0000078C0000076C0000074C00000F4
:1000300072C0000070C000006EC000006CC0000004
:10004000B4C4000068C00000F3C600001FC7000071
:1000500062C0000060C000005EC000005CC0000024
:100060005AC0000058C00000000000002400270013
:100070002A0000000000250028002B0000000000DE
:1000800023002600290004040404040404040202DA
:100090000202020203030303030301020408102007
:1000A0004080010204081020010204081020000012
:1000B0000007000201000003040600000000000029
:1000C0000000F400E40811241FBECFEFD8E0DEBF2B
:1000D000CDBF11E0A0E0B1E0EAE3F7E102C0059096
:1000E0000D92A833B107D9F712E0A8E3B1E001C03F
:1000F0001D92AB36B107E1F710E0C6ECD0E004C0CA
:100100002297FE010E94970BC23CD107C9F70E94BB
:100110004B090C949B0B74CFA0E0B0E0E2E9F0E057
:100120000C94540B7C01EB018A01690109C0CE01DA
:100130002196F6010995F70181937F010150104046
:1001400001151105A1F7CDB7DEB7E8E00C94700BEF
:10015000A0E0B0E0EEEAF0E00C94540BEC017B017F
:100160008A01690109C0CE012196F70161917F01E1
:10017000F60109950150104001151105A1F7CDB701
:10018000DEB7E8E00C94700BDC01ED91FC9101907E
:10019000F081E02D099508959C01F999FECF32BDBB
:1001A00021BDF89A80B508959C01F999FECF1FBA38
:1001B00032BD21BD60BD0FB6F894FA9AF99A0FBE10
:1001C00008958091B701880F880FE6B1E370E82B9E
:1001D000E093B701F0E0EF70F070E050FF4F8081E6
:1001E00008958093410108958FE491E00E94D00921
:1001F0008FE591E00E94D0098FE691E062E040E057
:100200000E94C00A81E891E064E040E00E94C00AD8
:1002100083E991E069E04AE00E94C0098EE991E03B
:1002200065E046E00C94C0091F9389E492E013D77F
:10023000182F882359F080914001882339F089E4F0
:1002400092E021D7BC0189E492E09EDF812F1F91CB
:100250000895809141018150823008F0E0C0FBD3C5
:10026000621973098409950920914501309146016D
:100270004091470150914801261737074807590711
:1002800008F0CDC089E492E068EF70E07DDFE3D351
:100290001B012C019A2D9F5FA92E80913F01981779
:1002A00051F4289AAA2460914D018EE991E040E032
:1002B0000E94A109B4C08695981709F0B0C028988B
:1002C0006DC089E492E0FFD6982F907F9A3F09F4A1
:1002D0007DC09B3F20F4983F09F0A1C007C09B3F21
:1002E00009F487C09C3F09F09AC05DC0B4D39B015C
:1002F000AC01261937094809590989F08FE591E0C1
:10030000B9010E94D809AA2797FDA095BA2F80931A
:10031000490190934A01A0934B01B0934C019BD3A8
:100320003B014C019B2D9F5FB92E80914101823092
:1003300021F0833009F073C010C080913F019817FD
:1003400029F460914E0183E991E01BC086959817CE
:1003500009F065C083E991E023C089E492E068EF89
:1003600070E012DF80913F01B81679F4289A60910D
:100370004E0183E991E041E0E4D760914D018EE9BF
:1003800091E041E0DED7BB244AC08695B81609F05B
:1003900046C0289883E991E061E0CDD78EE991E0ED
:1003A00061E0C9D73CC080914101833029F490932A
:1003B000430181E080934D018CEF8093440181E003
:1003C00080934E0183E991E061E025C08091410175
:1003D000833029F49093430182E080934D018AEFAA
:1003E0008093440182E080934E0183E991E063E0D1
:1003F00012C080914101833029F482E080934D0145
:10040000909343018BEF8093440182E080934E01EF
:1004100083E991E062E048EC50E021E09CD704DF02
:10042000882309F04ECF17D36619770988099909EF
:10043000615C77428940904058F0662477244301FC
:10044000BB2481E0CEDE83E991E060E074D70EC08A
:10045000611471048104910449F08091410181305B
:1004600029F482E0BEDE83E080934E0189E492E0CD
:1004700053D6A7DE182F882309F468C08FE691E0D1
:10048000F3D78536910518F46AE070E002C064EF96
:1004900071E02091A901210F2093A90180914101D0
:1004A0008150823008F052C02C3F41F1243009F0D5
:1004B0004DC01092A9012091450130914601409113
:1004C000470150914801203781E1380781E0480712
:1004D00080E05807D8F5CB01A0E0B0E0820F931F71
:1004E000A41FB51F8093450190934601A093470137
:1004F000B093480183E991E061E024C01092A90122
:1005000020914501309146014091470150914801A9
:100510002932E3E23E07E0E04E07E0E05E07B0F09C
:10052000CB01A0E0B0E0281B390B4A0B5B0B2093FA
:10053000450130934601409347015093480183E9B8
:1005400091E062E049E150E021E005D7809142016D
:1005500090914301891729F19B3F89F09C3F19F045
:100560009A3FA9F407C089E492E06CEF70E00CDEDA
:1005700081E00BC089E492E06AEF70E004C089E496
:1005800092E06BEF70E000DE82E080934D0180919D
:1005900043018093420160914D018EE991E040E07A
:1005A000D0D683E991E0A3D68EE991E0A0C6EF9280
:1005B000FF920F931F9358D7855F914008F09FC01B
:1005C00010914101123009F488C0133009F491C030
:1005D000113009F094C03FD22091AA013091AB01B3
:1005E0004091AC015091AD012617370748075907D4
:1005F00030F48FE491E0D8D61093B60142C08091D8
:10060000B6018F5F8093B60126D29B01AC01809129
:10061000B2019091B301A091B401B091B501281B32
:10062000390B4A0B5B0B2093AE013093AF01409323
:10063000B0015093B1018FE491E0B901B9D6FC014A
:100640008091B6018430E8F020913F0130E040E035
:1006500050E0BF01882777FD8095982FF9D7209328
:10066000450130934601409347015093480183E987
:1006700091E063E04BE450E021E06DD68EE991E03B
:1006800002C083E991E063E04BE450E021E063D6EF
:10069000E2D16093B2017093B3018093B40190935F
:1006A000B501D9D17B018C0160913F0170E080E000
:1006B00090E020EA36E841E050E08CD79B01AC01A5
:1006C0002E0D3F1D401F511F2093AA013093AB01F7
:1006D0004093AC015093AD0112C083E082DDAB2C9E
:1006E00080914401882311F0809343018EE991E0C9
:1006F00004C081E076DD83E991E060E01CD61F91C3
:100700000F91FF90EF9008959C01CB01B90124ED6A
:1007100030E01ECD8CE094E5909339018093380150
:100720008091450190914601A0914701B091480107
:1007300080933A0190933B01A0933C01B0933D011B
:100740008091420180933E0188E391E060E070E097
:1007500049E050E0D9DF64E670E080E090E0DCD171
:1007600083E991E062E04CED55E021E0F4D58EE9BB
:1007700091E062E04CED55E021E0EDC5CF93DF93D1
:10078000EC018FE691E070D68D5D954010F0C2DFF0
:100790003BC0CE0169D68D5D9540B0F0809140019F
:1007A00090E0882309F491E090934001992331F07F
:1007B000913051F583E991E062E003C083E991E073
:1007C00061E04DE451E011C0CE014ED620914201CE
:1007D000855F914068F02C3FB9F48AEF8093430124
:1007E0008EE991E063E046E950E021E0B4D50CC029
:1007F0002A3F50F02C3F18F02C3F31F402C08CEF10
:1008000001C08BEF80934301DF91CF910895299A26
:100810005D9A8CE094E5909339018093380188E1EA
:1008200080933F0180E29EE4A0E0B0E080933A0133
:1008300090933B01A0933C01B0933D018CEF8093DA
:100840003E011092400188E391E060E070E049E0F1
:1008500050E05ADF64E670E080E090E05DD181E82E
:1008600091E016D68823B1F78FE691E011D6882360
:1008700089F729985D980895809164008460809339
:100880006400809164008068809364008DE061E082
:10089000C3D12D9A8EE060E0BFD1409A8FE060E036
:1008A000BBD1419A88E061E0B7D188E391E060E094
:1008B00070E049E050E02CEC30E02EDC8091380113
:1008C000909139018C50944551F481E891E0E0D544
:1008D000882331F08FE691E0DBD5882309F097DF9C
:1008E00080913E018B3F09F48AEF80934301809110
:1008F0003A0190913B01A0913C01B0913D01809360
:10090000450190934601A0934701B09348016624A6
:1009100077244301222433242101AA24BB2481E02B
:1009200080934E015EDC89E492E042E15AE760E0A8
:1009300070E016D310E01B5F8AE0612F70E00ED1EB
:1009400086E0612F70E00AD164E070E080E090E022
:10095000E3D0103C80F313EC15508AE0612F70E077
:10096000FDD086E0612F70E0F9D064E070E080E0B7
:1009700090E0D2D0163080F78AE060E070E0EED0F0
:1009800086E060E070E0EAD066E970E080E090E048
:10099000C3D08FE691E067ED72E062D581E891E027
:1009A0006EEB73E05DD52D9808951F920F920FB6F0
:1009B0000F9211242F933F938F939F93AF93BF93E5
:1009C0008091BC019091BD01A091BE01B091BF0189
:1009D0003091C0010196A11DB11D232F2D5F2D3730
:1009E00020F02D570196A11DB11D2093C0018093C9
:1009F000BC019093BD01A093BE01B093BF01809153
:100A0000B8019091B901A091BA01B091BB010196D2
:100A1000A11DB11D8093B8019093B901A093BA01B3
:100A2000B093BB01BF91AF919F918F913F912F9157
:100A30000F900FBE0F901F9018958FB7F8942091CC
:100A4000BC013091BD014091BE015091BF018FBFEB
:100A5000B901CA0108959FB7F8942091B801309167
:100A6000B9014091BA015091BB0186B5A89B06C05F
:100A70008F3F21F02F5F3F4F4F4F5F4F9FBF542F4E
:100A8000432F322F2227280F311D411D511D82E097
:100A9000220F331F441F551F8A95D1F7B901CA0190
:100AA0000895789484B5826084BD84B5816084BDE6
:100AB00085B5826085BD85B5816085BDEEE6F0E0D7
:100AC000808181608083E1E8F0E010828081826033
:100AD0008083808181608083E0E8F0E080818160B4
:100AE0008083E1EBF0E0808184608083E0EBF0E0E4
:100AF000808181608083EAE7F0E080818460808388
:100B00008081826080838081816080838081806831
:100B100080831092C1000895EF92FF920F931F936C
:100B2000CF93DF937B018C0196DFEB010EC051D593
:100B300092DF6C1B7D0B685E7340C8F30894E1087C
:100B4000F10801091109C851DC4FE114F104010554
:100B5000110569F7CDB7DEB7E6E0C4C51F93CF93A3
:100B6000DF93182FEB0161E057D0209709F44AC0BA
:100B7000CF3FD10509F449C0E12FF0E0E255FF4F26
:100B800084918330C1F0843028F4813051F0823078
:100B9000B1F50CC0863019F1873049F1843079F510
:100BA00014C084B5806884BDC7BD32C084B580627E
:100BB00084BDC8BD2DC08091800080688093800076
:100BC000D0938900C093880023C080918000806208
:100BD00080938000D0938B00C0938A0019C08091CD
:100BE000B00080688093B000C093B30011C08091C2
:100BF000B00080628093B000C093B40009C0C038D8
:100C0000D1051CF4812F60E002C0812F61E072D019
:100C1000DF91CF911F910895CF93DF93482F50E03C
:100C2000CA0186569F4FFC0134914A575F4FFA0123
:100C30008491882379F1482F50E0440F551FCA0151
:100C400088599F4FFC01A591B4914E585F4FFA010E
:100C5000C591D491662351F42FB7F8948C91932FBA
:100C6000909589238C93888189230BC0623061F42D
:100C70002FB7F8948C91932F909589238C9388812A
:100C8000832B88832FBF06C09FB7F8948C91832B4A
:100C90008C939FBFDF91CF910895833071F08430A2
:100CA00028F48130A1F0823021F514C08630B1F0F3
:100CB0008730D1F08430E9F404C0809180008F77D0
:100CC00003C0809180008F7D80938000089584B55B
:100CD0008F7702C084B58F7D84BD08958091B00068
:100CE0008F778093B00008958091B0008F7D8093BE
:100CF000B0000895FF920F931F93F62E482F50E0F7
:100D0000CA0182559F4FFC012491CA0186569F4F0C
:100D1000FC0114914A575F4FFA0104910023C1F07E
:100D2000222311F0822FB9DFE02FF0E0EE0FFF1F3A
:100D3000EE58FF4FA591B4919FB7F894FF2021F48E
:100D40008C911095812302C08C91812B8C939FBF35
:100D50001F910F91FF9008950F931F93482F50E01C
:100D6000CA0182559F4FFC012491CA0186569F4FAC
:100D7000FC0104914A575F4FFA011491112319F4B1
:100D800020E030E013C0222311F0822F86DFE12F14
:100D9000F0E0EE0FFF1FE458FF4FA591B4918C9146
:100DA000802320E030E011F021E030E0C9011F9104
:100DB0000F910895FC0184E391E091838083138275
:100DC000128208950F931F938C01F4DF84E291E067
:100DD000F8019183808388EE93E0A0E0B0E0848303
:100DE0009583A683B7831F910F910895CF93DF93C7
:100DF000482FDB01EB01C05CDF4F288139812F5F79
:100E00003F4F2F733070AE5BBF4F8D919C91119708
:100E1000A254B0402817390739F0E881F981EA0F68
:100E2000FB1F408339832883DF91CF910895089574
:100E30001F920F920FB60F9211242F933F934F934F
:100E40005F936F937F938F939F93AF93BF93EF9332
:100E5000FF938091C00082FD06C08091C60061ECC6
:100E600071E0C4DF02C08091C600FF91EF91BF9195
:100E7000AF919F918F917F916F915F914F913F9132
:100E80002F910F900FBE0F901F9018951F920F92E9
:100E90000FB60F9211242F933F938F939F93EF934D
:100EA000FF93209145023091460280914702909134
:100EB00048022817390731F48091C1008F7D809353
:100EC000C10014C0E0914702F0914802EB5FFD4F72
:100ED0002081809147029091480201968F73907013
:100EE00090934802809347022093C600FF91EF91B0
:100EF0009F918F913F912F910F900FBE0F901F9058
:100F00001895A2E0B0E0E6E8F7E0C4C33C012B018D
:100F10001A013A83298356DF84E191E0F30191833A
:100F20008083558644863786268689819A81918B6F
:100F3000808B138B028BF58AE48AD78AC68AB18E9E
:100F4000A08E938E828E8F89848F888D858F898DD8
:100F5000868F8A8D878F8B8D80A32296E2E1B6C320
:100F6000A0E0B0E0E5EBF7E0A0C3EC017A018B0173
:100F7000DD24403021EE520720E0620720E07207B6
:100F800011F0DD24D394EC89FD89DD2071F081E03E
:100F900090E008A002C0880F991F0A94E2F78083AE
:100FA00060E079E08DE390E005C0108260E874E8CD
:100FB0008EE190E0A80197014BD3C901DA010197B6
:100FC000A109B109B695A7959795879520E180303D
:100FD000920720F0DD2011F0DD24D5CFE889F989D2
:100FE0009083EA89FB89808319A2EE89FF89408179
:100FF00021E030E0C9010C8C02C0880F991F0A94CF
:10100000E2F7482B4083EE89FF894081C9010D8CAE
:1010100002C0880F991F0A94E2F7482B4083EE899B
:10102000FF894081C9010E8C02C0880F991F0A9464
:10103000E2F7482B4083EE89FF8980810F8C02C044
:10104000220F331F0A94E2F7209528232083CDB77F
:10105000DEB7E7E046C3DC011C96ED91FC911D97DD
:10106000E05CFF4F2191319180819181281B390BE8
:101070002F733070C901089589E492E0ECDF892B69
:1010800009F0D5CE0895DC011C96ED91FC911D97D9
:10109000E05CFF4F20813181E054F040DF01AE5B26
:1010A000BF4F8D919C9111972817390719F42FEF95
:1010B0003FEF07C08D919C91E80FF91F8081282F89
:1010C00030E0C9010895DC011C96ED91FC911D975B
:1010D000E05CFF4F20813181E054F040DF01AE5BE6
:1010E000BF4F8D919C9111972817390719F42FEF55
:1010F0003FEF10C08D919C911197E80FF91F20814F
:101100008D919C91119701968F73907011969C937D
:101110008E9330E0C9010895DC0191968C919197EE
:10112000882339F05496ED91FC915597808186FF84
:10113000F4CF91961C920895DC011E96ED91FC91DE
:101140001F97E05CFF4F20813181E054F0402F5F1A
:101150003F4F2F733070EE5BFF4F80819181E254DF
:10116000F04028173907B9F3E05CFF4F8081918187
:10117000E054F040E80FF91F60831E96ED91FC915A
:101180001F97E05CFF4F318320835696ED91FC91D1
:101190005797208181E090E05F960C905F9702C0A6
:1011A000880F991F0A94E2F7282B208381E09196FB
:1011B0008C9391975496ED91FC9155978081806422
:1011C000808381E090E008958F929F92AF92BF92CA
:1011D000CF92DF92EF92FF920F931F9300D000D037
:1011E0000F92EDB7FEB7319684E0ADB7BEB711965A
:1011F0008C9383E0818387E0828385E0838381E031
:10120000848389E492E061EC71E045E052E025ECF2
:1012100030E004EC10E0B0ECEB2EF12CA1ECCA2E87
:10122000D12CF2ECAF2EB12CE6EC8E2E912C69DE97
:101230000F900F900F900F900F901F910F91FF90B4
:10124000EF90DF90CF90BF90AF909F908F900895D8
:10125000A0E0B0E0EDE2F9E027C28C017B01C0E044
:10126000D0E00EC0D801ED91FC910190F081E02D0D
:10127000D7016D917D01C8010995C80FD91FA6013D
:101280006A010894C108D108452B61F7CE01CDB79A
:10129000DEB7E8E025C205DCEFDA0E9429018CE325
:1012A00098E0892BD1F3E8DEF8CF0895CF93DF9350
:1012B000EC0189818617C1F06983623039F06330AF
:1012C00041F08B81613059F461E00AC08B8160E0AC
:1012D00002C08B8161E00EDD8C8161E004C060E0C2
:1012E00009DD8C8160E006DDDF91CF910895CF9319
:1012F000DF93EC018A818823C1F09FDB2F81388541
:1013000049855A85621B730B840B950B2D813E8199
:1013100040E050E0621773078407950720F01A82B7
:101320001E821D8202C06A8101C06881CE01BEDFBB
:10133000DF91CF910895FC011082662309F0D7CF89
:101340000895FC018081861729F06083442311F001
:10135000CF01CDCF08951F93CF93DF93EC01122FD0
:101360006A835E834D8369DB6F83788789879A8779
:10137000112311F0CE01BBDFDF91CF911F910895B2
:101380000F931F938C01862FF8016383448361E0E0
:1013900043DCF801848161E03FDC1F910F910895E7
:1013A00021E0FC012687089521E0FC0126870895AD
:1013B000CF93DF93DC011E968C911E97882301F159
:1013C0001E961C921E971F961C921F97CB01880F8A
:1013D000991F860F971F880F991F1C968C931C9737
:1013E0001D969C931D9780E0E82FF0E0EE0FFF1F05
:1013F000EA0FFB1F718360838F5F8630A8F321C0E3
:101400001C964D915C911D971F968C911F97E82F0C
:10141000F0E0EE0FFF1FEA0FFB1F20813181EB018F
:10142000C21BD30B9E01240F351F1D963C932E9398
:101430001C97718360838F5F66E0EBD01F969C934F
:101440001F971C968D919C911D97039666E070E006
:10145000ECD0CB01DF91CF910895FC01118208956A
:10146000FC01748763870895CF93DF93EC018B8130
:101470009C818F5F9F4F19F460E070E005C0DDDA5A
:101480008B819C81681B790BCB01DF91CF910895F3
:10149000CF93DF93EC018A8180FF02C0826001C09C
:1014A0008D7F8A83888158DC298130E04A818217C8
:1014B000930711F44E7F01C041604A834A81242F73
:1014C00030E0C901959587958227932780FF26C034
:1014D00040FF10C08F8598890196988B8F87EF8188
:1014E000F885309711F0CE010995A7DA7C836B83DC
:1014F000198A10C0E985FA85309711F0CE01099557
:10150000EB85FC85309711F0CE0109958FEF9FEFA9
:101510009C838B838A8184608A8324C04B7F4A8327
:101520008B819C818F5F9F4FE9F089898823D1F45B
:1015300084DA2B813C8140E050E0621B730B840B0A
:10154000950B2D813E8140E050E026173707480774
:10155000590740F4ED85FE85309721F0CE010995BD
:1015600081E0898B8A818170DF91CF910895FC01A0
:1015700081E08183623019F4808161E0BBCB089502
:101580001F93CF93DF93EC01862F142F688360E0C5
:1015900043DB112319F4CE0160DF03C0CE01612FBC
:1015A000E6DF1A828981882319F481E08A8301C0E9
:1015B0001A8218861F821A8619861C861B861E862A
:1015C0001D86188A1F8681E0898BDF91CF911F913C
:1015D00008950895629FD001739FF001829FE00DEE
:1015E000F11D649FE00DF11D929FF00D839FF00DA2
:1015F000749FF00D659FF00D9927729FB00DE11D4E
:10160000F91F639FB00DE11DF91FBD01CF0111242A
:101610000895991B79E004C0991F961708F0961B4E
:10162000881F7A95C9F78095089597FB092E07269C
:101630000AD077FD04D065D006D000201AF470954A
:1016400061957F4F0895F6F7909581959F4F089586
:10165000A1E21A2EAA1BBB1BFD010DC0AA1FBB1FB6
:10166000EE1FFF1FA217B307E407F50720F0A21B28
:10167000B30BE40BF50B661F771F881F991F1A9495
:1016800069F760957095809590959B01AC01BD01BF
:10169000CF0108952F923F924F925F926F927F9267
:1016A0008F929F92AF92BF92CF92DF92EF92FF9272
:1016B0000F931F93CF93DF93CDB7DEB7CA1BDB0B1E
:1016C0000FB6F894DEBF0FBECDBF09942A883988C3
:1016D00048885F846E847D848C849B84AA84B984CA
:1016E000C884DF80EE80FD800C811B81AA81B981D6
:1016F000CE0FD11D0FB6F894DEBF0FBECDBFED01EA
:101700000895AA1BBB1B51E107C0AA1FBB1FA61748
:10171000B70710F0A61BB70B881F991F5A95A9F79A
:1017200080959095BC01CD010895EE0FFF1F0590A7
:0A173000F491E02D0994F894FFCF26
:10173A0000FF0100010000FFFF0000010001FF009F
:10174A00000000009C0828092B08630843088C083D
:10175A000000000055092809550955095509550978
:08176A000000000055092809E8
:00000001FF
