:100000000C94AC000C94D4000C94D4000C94AC046C
:100010000C94D6040C9400050C94D4000C94D400D9
:100020000C94D4000C94D4000C94D4000C94D40000
:100030000C94D4000C94D4000C94D4000C94D400F0
:100040000C94C3070C94D4000C94DC090C94230A80
:100050000C94D4000C94D4000C94D4000C94D400D0
:100060000C94D4000C94D40000C2010001001100D3
:1000700011000C0000E100000A002500250021000D
:10008000009600001900390039003600127A00008D
:100090001F004600460044008070000022004D0012
:1000A0004D004A00004B00003600750075007200DC
:1000B000403800004A009C009C0099008025000008
:1000C0007200EC00EC00E900C0120000E900DA0167
:1000D000DA01D70160090000D701B603B603B30304
:1000E000B0040000B3036E076E076B072C0100001D
:1000F000DC0EC11DC11DBE1D000000002400270034
:100100002A0000000000250028002B00000000004D
:100110002300260029000404040404040404020249
:100120000202020203030303030301020408102076
:100130004080010204081020010204081020000081
:100140000007000201000003040600000000000098
:100150000000FC00890BF50011241FBECFEFD8E092
:10016000DEBFCDBF11E0A0E0B1E0E8E1FCE102C0FC
:1001700005900D92A235B107D9F712E0A2E5B1E0E2
:1001800001C01D92AA3AB107E1F711E0C6E5D1E03E
:1001900004C02297FE010E94FB0DC235D107C9F7AA
:1001A0000E94D90B0C94FF0D0C9400008130910536
:1001B00091F46F5F7F4FC1F483E691E062E070E0FD
:1001C00041E00E94F9038AE991E067E048E020E01D
:1001D0000E9495070895892B39F46F5F7F4F21F4B2
:1001E0008AE991E00E941C06089580E090E06FEF9C
:1001F0007FEF0E94D600089581E090E06FEF7FEFDF
:100200000E94D6000895AF92BF92CF92DF92EF92F4
:10021000FF920F931F938BE892E00E94E40A181656
:1002200019060CF068C08BE892E00E94150B8093D1
:1002300060018AE991E060E071E00E94170D8AE9AF
:1002400091E0609160014AE050E00E94F90C8091D9
:1002500060018C3F21F08A3F11F08B3F29F480939D
:100260005C0110925D0143C0883F39F48CEF90E04F
:1002700090935D0180935C013AC08BE892E00E940C
:10028000150B809361018BE892E00E94150B80931F
:1002900062018BE892E0609160010E94500B8BE854
:1002A00092E0609161010E94500B8BE892E06091B6
:1002B00062010E94500B8AE991E064E071E00E94C3
:1002C000170D8AE991E0609161014AE050E00E94D7
:1002D000E70C8AE991E064E071E00E94170D8AE979
:1002E00091E0609162014AE050E00E94E70C8AE9E7
:1002F00091E00E94120C83E691E00E94570383E68E
:1003000091E00E942E03882331F081E090E09093E9
:100310005F0180935E0183E691E00E9434038823AD
:1003200031F082E090E090935F0180935E0183E67C
:1003300091E00E943103882399F180915E019091B0
:100340005F01892B09F4EAC08AE991E066E071E077
:100350000E94170D60915E0170915F018AE991E042
:100360004AE050E00E94CA0C80915A0190915B01D2
:100370008C3F910579F480915E0190915F0181300D
:10038000910519F48BEF90E007C0029749F48AEFCA
:1003900090E002C08CEF90E090935D0180935C014F
:1003A00020915C0130915D0180915A0190915B0137
:1003B0008217930709F443C030935B0120935A01DD
:1003C0008AE991E06FE071E00E94170D60915A0197
:1003D00070915B018AE991E04AE050E00E94B90C1B
:1003E0008AE991E06DE171E00E94170D60915C0176
:1003F00070915D018AE991E04AE050E00E94CA0CE8
:1004000060915C0170915D01CB018A5F9040029721
:1004100030F48BE892E00E94500B5E9A10C06C3F63
:10042000710539F48BE892E06CEF0E94500B5E98F6
:1004300006C08CEF90E090935B0180935A0180910D
:100440005A0190915B018A5F9040029708F066C064
:1004500080E00E94D30800D000D0AA2797FDA09585
:10046000BA2F20E43DE043E050E0EDB7FEB7218332
:10047000328343835483BC01CD0120E030E040E06F
:1004800050E0FFEFEF2EF3E0FF2E012D112DE0E104
:10049000AE2EE7E2BE2EC12CD12C0E942D0D609312
:1004A00056017093570180935801909359010F9012
:1004B0000F900F900F900E941908209152013091D7
:1004C00053014091540150915501621B730B840BF1
:1004D000950B209156013091570140915801509150
:1004E00059012617370748075907B8F48BE892E0F7
:1004F00068EF0E94500B0E9419086093520170939C
:10050000530180935401909355015E9A8AE991E0DA
:1005100060E271E00E941A0D01C05E981F910F9178
:10052000FF90EF90DF90CF90BF90AF900895EF9243
:10053000FF920F931F93EAE7F0E08081846080834D
:1005400080818D7F808380818E7F80838DE061E0DC
:100550000E94F50886E061E00E94F50887E060E00F
:100560000E94F50888E061E00E94F50882E060E002
:100570000E94F508AAE9EA2EA1E0FA2EC70140E0A0
:100580005BE460E070E00E942A05C70165E271E06B
:100590000E941A0D03E611E0C80162E370E00E94B8
:1005A0002A03C80164EF71E00E94530386E061E012
:1005B0000E9434098DE060E00E94340964E670E036
:1005C00080E090E00E943F0886E060E00E943409ED
:1005D0008DE061E00E94340961E270E080E090E02B
:1005E0000E943F0886E061E00E9434098DE060E0EF
:1005F0000E94340964E670E080E090E00E943F08C9
:1006000086E060E00E9434098DE061E00E943409D8
:1006100061E270E080E090E00E943F088BE892E0A9
:1006200042E15AE760E070E00E945E0A8CEF90E0E1
:1006300090935D0180935C0190935B0180935A01DC
:10064000C7016BE271E00E941A0D1F910F91FF909C
:10065000EF900895FC01738B628B0895FC018789EC
:100660000895FC01808D0895FC018489882311F48C
:1006700060E017C060E023A934A945A956A987A165
:1006800090A5A1A5B2A5281B390B4A0B5B0B878D42
:1006900090A1A0E0B0E082179307A407B50708F483
:1006A00061E0862F0895FC0170A3678F0895CF93B2
:1006B000DF93EC010E940B086BAB7CAB8DAB9EAB68
:1006C0008F81882341F488810E9488091A86892BAA
:1006D00081F081E00DC0EC81FD8180818E8390E00E
:1006E0000A8002C0959587950A94E2F78170907010
:1006F0008A879A8589852BA93CA94DA95EA9981757
:1007000031F01B862E873F87488B598B13C08E850F
:100710009F85A889B989281B390B4A0B5B0B8A89ED
:100720009B89A0E0B0E082179307A407B50710F4F7
:1007300081E08B878B85882321F08D858C878A8546
:100740008D879D858885981729F481E08C8B1D8A7B
:10075000188E04C01C8A81E08D8B1F8A9C858D8534
:10076000981719F081E08E8B03C01E8A1F8A188E9D
:100770008E898823B9F18C898823C1F081E08F8B21
:10078000898D9A8D01969A8F898F8FA198A5A9A599
:10079000BAA58BA39CA3ADA3BEA38BA99CA9ADA90D
:1007A000BEA98FA398A7A9A7BAA71DC08D89882322
:1007B000D9F01F8A81E0888F8B8D9C8D01969C8F4C
:1007C0008B8F8FA598A9A9A9BAA98BA79CA7ADA71C
:1007D000BEA78BA99CA9ADA9BEA98FA798ABA9ABB1
:1007E000BAAB02C01F8A188E8A858987DF91CF91A4
:1007F0000895FF920F931F938C01862FF42EF8011A
:100800006083718360E00E94F508F801178280819F
:10081000918193838283F08616821186128621E06D
:1008200023871486158616861786108A118A8EE10C
:1008300090E0938B828B148A258B168A178A108EF0
:10084000128E118E148E138E80E991E0968F858F13
:100850008CED95E090A3878F11A222A313A214A27E
:1008600015A216A217A210A611A612A613A614A6C8
:1008700015A616A617A610AA11AA12AA1F910F91C3
:10088000FF9008950F931F93CF93DF93FC01738D17
:1008900076957170A685B7859585772329F08C911B
:1008A000892309F454C004C08C91892309F04FC0F6
:1008B0008389948920E001972FEF8F3F9207D9F722
:1008C000C589D689A685B785158560E031E040E009
:1008D00050E000E0CE01202F01972FEF8F3F9207CD
:1008E000D9F78C91812311F0632B03C0832F80955E
:1008F0006823330F4F5F5F4F4830510559F78789A1
:10090000908D20E001972FEF8F3F9207D9F771115B
:1009100060958091F8012091F90190E001968F7324
:10092000907030E08217930779F0E091F801F0E0E1
:10093000E854FE4F60838091F80190E001968F7338
:1009400090708093F80103C0838D8160838FDF9165
:10095000CF911F910F9108951F920F920FB60F9292
:1009600011242F933F934F935F936F937F938F93B4
:100970009F93AF93BF93EF93FF938091B6019091B4
:10098000B701009711F00E944204FF91EF91BF91CF
:10099000AF919F918F917F916F915F914F913F9117
:1009A0002F910F900FBE0F901F9018951F920F92CE
:1009B0000FB60F9211242F933F934F935F936F9332
:1009C0007F938F939F93AF93BF93EF93FF93809108
:1009D000B6019091B701009711F00E944204FF9177
:1009E000EF91BF91AF919F918F917F916F915F91A7
:1009F0004F913F912F910F900FBE0F901F90189520
:100A00001F920F920FB60F9211242F933F934F9383
:100A10005F936F937F938F939F93AF93BF93EF9366
:100A2000FF938091B6019091B701009711F00E9459
:100A30004204FF91EF91BF91AF919F918F917F9170
:100A40006F915F914F913F912F910F900FBE0F903B
:100A50001F901895CF92DF92EF92FF920F931F9302
:100A6000CF93DF93EC017A018B011A8E198E188EC9
:100A70001F8A1E8A1D8A1C8A1B8A20E030E06901B9
:100A8000CC0CDD1CC20ED31EB601660F771F660F9D
:100A9000771FAB0148595F4FFA0185919591A59158
:100AA000B4918E159F05A007B107E9F4FB01E45945
:100AB000FF4F859194919C8B8B8BFB01E259FF4FEB
:100AC000859194919E8B8D8BFB01E059FF4F859111
:100AD0009491988F8F8BFB01EE58FF4F85919491E5
:100AE0009A8F898F06C02F5F3F4F2C30310509F058
:100AF000C6CF8F89988D892B09F449C04C85463122
:100B000008F03DC090916800483010F484E005C0C2
:100B10004E3010F082E001C081E0892B80936800A4
:100B2000483028F4EDE6F0E0ADE6B0E00BC04E3022
:100B300028F0ECE6F0E0ACE6B0E004C0EBE6F0E074
:100B4000ABE6B0E05081483040F481E090E002C074
:100B5000880F991F4A95E2F710C0242F30E04E30DD
:100B600018F42850304002C02E50304081E090E010
:100B700002C0880F991F2A95E2F7852B8C93898DE7
:100B80009A8D20E001972FEF8F3F9207D9F7809140
:100B9000B6019091B7018C179D0781F08B8D8E7FE8
:100BA0008B8F9FB7F8941092F8018091F801809391
:100BB000F901D093B701C093B6019FBFDF91CF91E8
:100BC0001F910F91FF90EF90DF90CF900895FC015F
:100BD0004485463180F5483028F4EDE6F0E0ADE696
:100BE000B0E00BC04E3028F4EBE6F0E0ABE6B0E04E
:100BF00004C0ECE6F0E0ACE6B0E05081483040F4F0
:100C000081E090E002C0880F991F4A95E2F710C07A
:100C1000242F30E04E3018F42850304002C02E50BF
:100C2000304081E090E002C0880F991F2A95E2F7DA
:100C3000809585238C930895FC0186E391E0918350
:100C40008083CF010E94E70508952091B60130917D
:100C5000B7012817390731F49091F9018091F80113
:100C6000981719F42FEF3FEF0FC0E091F901F0E072
:100C7000E854FE4F20818091F90190E001968F7336
:100C800090708093F90130E0C90108952091B60178
:100C90003091B7012817390719F020E030E00EC075
:100CA0008091F8012091F90190E0805C9F4F821BB8
:100CB000910960E470E00E94A90D9C01C9010895AA
:100CC0000F931F93DC0159968D919C915A97892B14
:100CD00049F481E090E013969C938E93129720E064
:100CE00030E097C00FB7F8945B968C915B97519664
:100CF000ED91FC91529750962C91509781FF8DC0A9
:100D00008081822B808359968D919C915A9705966C
:100D100020E001972FEF8F3F9207D9F75B968C91D8
:100D20005B9781FF35C031E040E050E070E010E0BB
:100D3000832F90E0862397235196ED91FC91529753
:100D400050962C915097892B29F08081209528234B
:100D5000208303C08081822B808359968D919C9142
:100D60005A97212F01972FEF8F3F9207D9F7330F13
:100D70004F5F5F4F48305105D9F65196ED91FC9188
:100D80005297908150968C9150978095892333C0CB
:100D900031E040E050E070E010E0832F90E08623E7
:100DA00097235196ED91FC91529750962C91509724
:100DB000892B21F08081822B808304C08081209543
:100DC0002823208359968D919C915A97212F019722
:100DD0002FEF8F3F9207D9F7330F4F5F5F4F4830A8
:100DE0005105D9F65196ED91FC915297808150961C
:100DF0009C915097892B80830FBF59968D919C9120
:100E00005A9720E001972FEF8F3F9207D9F721E003
:100E100030E0C9011F910F9108958081209528230A
:100E2000208371CF2091B6013091B701281739077F
:100E300049F49FB7F8941092F8018091F8018093DB
:100E4000F9019FBF08952091B6013091B70128178D
:100E5000390731F49091F9018091F801981719F44C
:100E60002FEF3FEF0AC0E091F901F0E0E854FE4FA8
:100E70008081282F332727FD3095C90108951F93BE
:100E8000CF93DF93EC01162F862F60E00E94F508C8
:100E90008B8D81FD04C0812F61E00E9434091C8785
:100EA000212F30E0C901865D9E4FFC0184918D8722
:100EB0002A5E3E4FF9016491E62FF0E0EE0FFF1F2E
:100EC000E45FFE4F859194919F878E87DF91CF914C
:100ED0001F910895FF920F931F938C01F62E862F7A
:100EE00061E00E94F5088F2D61E00E9434098F2D8A
:100EF00090E0FC01E65DFE4FE491D8015096EC9342
:100F000050978A5E9E4FFC016491E62FF0E0EE0F51
:100F1000FF1FEE5FFE4F8591949152969C938E93A6
:100F200051971F910F91FF900895FF920F931F9378
:100F30008C01F62EFC011382128288EE93E0A0E071
:100F4000B0E084839583A683B78386E391E09183A1
:100F50008083148A138A168A158A108E178A128E35
:100F6000118E838D2170220F8C7F822B838FC8017D
:100F7000642F0E946A07C8016F2D0E943F071F91CE
:100F80000F91FF9008951F920F920FB60F921124A8
:100F90002F933F938F939F93AF93BF938091FE01C5
:100FA0009091FF01A0910002B091010230910202E4
:100FB0000196A11DB11D232F2D5F2D3720F02D5738
:100FC0000196A11DB11D209302028093FE01909312
:100FD000FF01A0930002B09301028091FA01909169
:100FE000FB01A091FC01B091FD010196A11DB11D75
:100FF0008093FA019093FB01A093FC01B093FD0153
:10100000BF91AF919F918F913F912F910F900FBE04
:101010000F901F9018958FB7F8942091FE01309192
:10102000FF0140910002509101028FBFB901CA0136
:1010300008959FB7F8942091FA013091FB014091F7
:10104000FC015091FD0186B5A89B06C08F3F21F0A1
:101050002F5F3F4F4F4F5F4F9FBF542F432F322F74
:101060002227280F311D411D511D82E0220F331F01
:10107000441F551F8A95D1F7B901CA0108959B01F4
:10108000AC017FB7F8948091FA019091FB01A09197
:10109000FC01B091FD0166B5A89B05C06F3F19F03A
:1010A0000196A11DB11D7FBFBA2FA92F982F8827A8
:1010B000860F911DA11DB11D62E0880F991FAA1F07
:1010C000BB1F6A95D1F7BC012DC0FFB7F894809182
:1010D000FA019091FB01A091FC01B091FD01E6B5F0
:1010E000A89B05C0EF3F19F00196A11DB11DFFBFE0
:1010F000BA2FA92F982F88278E0F911DA11DB11DE2
:10110000E2E0880F991FAA1FBB1FEA95D1F7861B43
:10111000970B885E9340C8F22150304040405040C9
:1011200068517C4F211531054105510571F608952F
:10113000789484B5826084BD84B5816084BD85B5B2
:10114000826085BD85B5816085BDEEE6F0E0808179
:1011500081608083E1E8F0E010828081826080839A
:10116000808181608083E0E8F0E08081816080831D
:10117000E1EBF0E0808184608083E0EBF0E080814F
:1011800081608083EAE7F0E08081846080838081F1
:101190008260808380818160808380818068808399
:1011A0001092C1000895982F8E3008F09E509770CD
:1011B000809131018295880F880F807C892B8093E4
:1011C0007C0080917A00806480937A0080917A001C
:1011D00086FDFCCF2091780040917900942F80E02B
:1011E00030E0282B392BC9010895CF93DF93482F86
:1011F00050E0CA01865D9E4FFC0134914A5E5E4F0D
:10120000FA018491882369F190E0880F991FFC010D
:10121000E850FF4FA591B491FC01EE5FFE4FC591E0
:10122000D491662351F42FB7F8948C91932F909515
:1012300089238C93888189230BC0623061F42FB796
:10124000F8948C91932F909589238C938881832B8C
:1012500088832FBF06C09FB7F8948C91832B8C9303
:101260009FBFDF91CF910895482F50E0CA01825C63
:101270009E4FFC012491CA01865D9E4FFC01949112
:101280004A5E5E4FFA013491332309F440C02223B1
:1012900051F1233071F0243028F42130A1F02230B4
:1012A00011F514C02630B1F02730C1F02430D9F444
:1012B00004C0809180008F7703C0809180008F7D73
:1012C0008093800010C084B58F7702C084B58F7D75
:1012D00084BD09C08091B0008F7703C08091B000B9
:1012E0008F7D8093B000E32FF0E0EE0FFF1FEE5FE5
:1012F000FE4FA591B4912FB7F894662321F48C91F9
:101300009095892302C08C91892B8C932FBF0895CF
:10131000682F70E0CB01825C9E4FFC012491CB01D1
:10132000865D9E4FFC0144916A5E7E4FFB01949165
:10133000992319F420E030E03CC0222351F12330FE
:1013400071F0243028F42130A1F0223011F514C0BE
:101350002630B1F02730C1F02430D9F404C0809198
:1013600080008F7703C0809180008F7D8093800004
:1013700010C084B58F7702C084B58F7D84BD09C04D
:101380008091B0008F7703C08091B0008F7D8093F3
:10139000B000892F90E0880F991F845F9E4FFC0159
:1013A000A591B4918C9120E030E0842311F021E0EC
:1013B00030E0C901089508951F920F920FB60F9261
:1013C00011242F933F934F938F939F93EF93FF930A
:1013D0004091C60020914302309144022F5F3F4F5D
:1013E0002F7330708091450290914602281739077B
:1013F00059F0E0914302F0914402ED5FFD4F4083CC
:101400003093440220934302FF91EF919F918F917B
:101410004F913F912F910F900FBE0F901F901895F5
:10142000E0919702F0919802E05CFF4F81919191D9
:1014300020813181821B930B8F739070892B11F067
:101440000E94DB0908951F920F920FB60F9211248C
:101450002F933F938F939F93EF93FF932091870256
:10146000309188028091890290918A022817390769
:1014700031F48091C1008F7D8093C10014C0E09150
:101480008902F0918A02E95BFD4F208180918902F7
:1014900090918A0201968F73907090938A02809344
:1014A00089022093C600FF91EF919F918F913F9108
:1014B0002F910F900FBE0F901F901895AF92BF9273
:1014C000DF92EF92FF920F931F93CF93DF93EC0184
:1014D0007A018B01DD24403081EE580780E06807F7
:1014E00080E0780711F0DD24D39491E0A92EB12C8F
:1014F000EC89FD89DD2069F0C5010E8C02C0880FE2
:10150000991F0A94E2F7808360E079E08DE390E030
:1015100005C0108260E874E88EE190E0A8019701B0
:101520000E94BC0D21503040404050405695479598
:101530003795279580E12030380720F0DD2011F025
:10154000DD24D6CFE889F9893083EA89FB892083B5
:10155000EE89FF89408121E030E0C9010A8C02C098
:10156000880F991F0A94E2F7482B4083EE89FF8980
:101570004081C9010B8C02C0880F991F0A94E2F7C1
:10158000482B4083EE89FF894081C9010C8C02C041
:10159000880F991F0A94E2F7482B4083EE89FF8950
:1015A00080810D8C02C0220F331F0A94E2F7209530
:1015B00028232083DF91CF911F910F91FF90EF900F
:1015C000DF90BF90AF900895DC011C96ED91FC91E7
:1015D0001D97E05CFF4F2191319180819181281B03
:1015E000390B2F733070C9010895DC011C96ED9101
:1015F000FC911D97E05CFF4F20813181E054F04069
:10160000DF01AE5BBF4F8D919C9111972817390771
:1016100019F42FEF3FEF07C08D919C91E80FF91F50
:101620008081282F30E0C9010895DC011C96ED91DE
:10163000FC911D97E05CFF4F20813181E054F04028
:10164000DF01AE5BBF4F8D919C9111972817390731
:1016500019F42FEF3FEF10C08D919C911197E80F77
:10166000F91F20818D919C91119701968F73907035
:1016700011969C938E9330E0C9010895FC018685F4
:101680009785DC01A05CBF4FFC01EE5BFF4F2D9105
:101690003C9111978081918128173907C1F70895EE
:1016A000CF93DF93EC01EE85FF85E05CFF4F208157
:1016B0003181E054F0402F5F3F4F2F733070DF01D6
:1016C000AE5BBF4F8D919C91119728173907D1F3CD
:1016D000E05CFF4F80819181E054F040E80FF91FFA
:1016E0006083EE85FF85E05CFF4F31832083EE89C8
:1016F000FF89208181E090E00D8C02C0880F991F46
:101700000A94E2F7282B208381E090E0DF91CF91CB
:10171000089510928E0210928D0288EE93E0A0E060
:10172000B0E080938F0290939002A0939102B093C7
:10173000920286E491E090938C0280938B0283E086
:1017400092E0909398028093970287E492E09093BE
:101750009A028093990285EC90E090939C0280938A
:101760009B0284EC90E090939E0280939D0280EC1B
:1017700090E09093A00280939F0281EC90E0909380
:10178000A2028093A10286EC90E09093A402809341
:10179000A30284E08093A50283E08093A60287E001
:1017A0008093A70285E08093A80281E08093A9023C
:1017B0000895CF93DF930E9498080E949702C0E19A
:1017C000DAE00E9403012097E1F30E94100AF9CFAA
:1017D000CF92DF92EF92FF920F931F93CF93DF93FD
:1017E0007C016B018A01C0E0D0E00FC0D6016D9191
:1017F0006D01D701ED91FC910190F081E02DC701C1
:101800000995C80FD91F015010400115110571F736
:10181000CE01DF91CF911F910F91FF90EF90DF905C
:10182000CF900895EF92FF920F931F938C01DC01EC
:10183000ED91FC910190F081E02D6DE009957C0126
:10184000D801ED91FC910190F081E02DC8016AE092
:1018500009959C012E0D3F1DC9011F910F91FF900D
:10186000EF900895CF93DF93DB010D900020E9F70F
:101870001197A61BB70BEC01E881F9810280F38177
:10188000E02DAD010995DF91CF9108954F925F92C0
:101890007F928F929F92AF92BF92CF92DF92EF9200
:1018A000FF920F931F93DF93CF93CDB7DEB7A1972E
:1018B0000FB6F894DEBF0FBECDBF2C01742ECB0146
:1018C000223008F42AE019A231E2C32ED12CCC0E2A
:1018D000DD1E822E9924AA24BB24672D752FA50115
:1018E00094010E94BC0D79018A01C801B701A501CC
:1018F00094010E94760D472D461B0894C108D1081B
:101900004A3014F4405D01C0495CF6014083E114A3
:10191000F1040105110521F07E2C5F2DC801DDCFFA
:10192000C201B6010E94320CA1960FB6F894DEBF38
:101930000FBECDBFCF91DF911F910F91FF90EF9020
:10194000DF90CF90BF90AF909F908F907F905F90EF
:101950004F900895DC012115310541F4ED91FC9182
:101960000190F081E02D642F099508950E94460CA6
:101970000895EF92FF920F931F939A017B0100E06D
:1019800010E0B801A7010E94AA0C1F910F91FF90CF
:10199000EF900895CF92DF92EF92FF920F931F93F3
:1019A0006C017B019A0100E010E0B801A7010E94E0
:1019B000AA0C8C01C6010E94120C080F191FC80145
:1019C0001F910F91FF90EF90DF90CF900895EF92CD
:1019D000FF920F931F939A01E62EFF2400E010E080
:1019E000B801A7010E94AA0C1F910F91FF90EF90E0
:1019F0000895CF92DF92EF92FF920F931F936C01A5
:101A0000E62E9A01FF2400E010E0B801A7010E9431
:101A1000AA0C8C01C6010E94120C080F191FC801E4
:101A20001F910F91FF90EF90DF90CF9008950E944B
:101A3000320C0895EF92FF920F931F937C010E9446
:101A4000320C8C01C7010E94120C080F191FC8012B
:101A50001F910F91FF90EF9008952F923F924F9218
:101A60005F926F927F928F929F92AF92BF92CF922E
:101A7000DF92EF92FF920F931F93DF93CF93CDB737
:101A8000DEB73B014C0119012A016D897E898F89DE
:101A9000988D6A197B098C099D09621A730A840A58
:101AA000950AA40193010E94760DE218F308040937
:101AB0001509A80197010E94DE0D2A0D3B1D4C1D42
:101AC0005D1DB901CA01CF91DF911F910F91FF9068
:101AD000EF90DF90CF90BF90AF909F908F907F90CE
:101AE0006F905F904F903F902F900895629FD0012C
:101AF000739FF001829FE00DF11D649FE00DF11DC9
:101B0000929FF00D839FF00D749FF00D659FF00D77
:101B10009927729FB00DE11DF91F639FB00DE11D64
:101B2000F91FBD01CF0111240895AA1BBB1B51E170
:101B300007C0AA1FBB1FA617B70710F0A61BB70B3D
:101B4000881F991F5A95A9F780959095BC01CD01E2
:101B5000089597FB092E07260AD077FD04D0E5DF0C
:101B600006D000201AF4709561957F4F0895F6F71E
:101B7000909581959F4F0895A1E21A2EAA1BBB1B39
:101B8000FD010DC0AA1FBB1FEE1FFF1FA217B30749
:101B9000E407F50720F0A21BB30BE40BF50B661F5F
:101BA000771F881F991F1A9469F760957095809523
:101BB00090959B01AC01BD01CF01089597FB092EC3
:101BC00005260ED057FD04D0D7DF0AD0001C38F40C
:101BD00050954095309521953F4F4F4F5F4F089559
:101BE000F6F790958095709561957F4F8F4F9F4F39
:101BF0000895EE0FFF1F0590F491E02D099411E078
:101C0000C6E5D1E004C0FE010E94FB0D2296C83556
:081C1000D107C9F7F894FFCFDA
:101C1800494E3A003A0052454C454153453A005323
:101C2800544154455F4348414E47453A002D3E00D4
:101C380053594E4300534554555000524541445959
:101C48000001000000006006E80B46062506230791
:101C5800120700000000500BE80BE40A150BF50A08
:021C68003E0B31
:00000001FF
